:020000040800F2
:1000000070060020550200081104000809040008C9
:100010000D0400080104000841040008000000006D
:1000200000000000000000000000000019040008AB
:100030000504000800000000150400081D04000865
:100040006F0200086F0200086F0200086F020008CC
:100050006F0200086F0200086F0200086F020008BC
:100060006F0200086F0200086F0200086F020008AC
:100070006F0200086F0200086F0200086F0200089C
:100080006F0200086F0200086F0200086F0200088C
:100090006F0200086F0200086F0200086F0200087C
:1000A0006F0200086F0200086F0200086F0200086C
:1000B0006F0200086F0200086F0200086F0200085C
:1000C0006F0200086F0200086F0200086F0200084C
:1000D0006F0200086F0200086F0200086F0200083C
:1000E0006F0200086F0200086F0200086F0200082C
:1000F0006F0200086F0200086F0200086F0200081C
:100100006F0200086F0200086F0200086F0200080B
:100110006F0200086F0200086F0200086F020008FB
:100120006F0200086F0200086F0200086F020008EB
:100130006F0200086F0200086F0200086F020008DB
:100140006F0200086F0200086F0200086F020008CB
:100150006F0200086F0200086F0200086F020008BB
:100160006F0200086F0200086F0200086F020008AB
:100170006F0200086F0200086F0200080000000014
:100180006F0200086F02000800F002F800F052F859
:1001900014A696E8000CB244B344DA4501D100F04D
:1001A00049F8BAE80F000FA696E83000A5EB040561
:1001B00004EB0607AAEB0704A7F101074FEA1515A0
:1001C0004FEA3414A4F10104AC4201D300F032F838
:1001D00013F0010F18BFFB1A43F0010300F001F800
:1001E000DBE718478C070000AC070000103A24BF7B
:1001F00078C878C1FAD8520724BF30C830C144BF8C
:1002000004680C6070470000704700000023002461
:1002100000250026103A28BF78C1FBD8520728BF16
:1002200030C148BF0B6070471FB500F093FB1FBD86
:1002300010B510BD00F036F81146FFF7F5FF00F0DD
:1002400001F900F054F803B4FFF7F2FF03BC00F02B
:1002500057F800000948804709480047FEE7FEE7D5
:10026000FEE7FEE7FEE7FEE7FEE7FEE7FEE7FEE766
:1002700004480549054A064B704700002D04000854
:100280008901000870000020700600207002002024
:1002900070020020704770477047000000487047A8
:1002A000080000207546FFF7F9FFAE4605006946D5
:1002B000534620F00700854618B020B5FFF7D8FF59
:1002C000BDE820404FF000064FF000074FF0000857
:1002D0004FF0000BAC46ACE8C009ACE8C009ACE894
:1002E000C009ACE8C00921F007018D46704710B580
:1002F0000446AFF300802046BDE81040FFF7A3BFDF
:1003000001491820ABBEFEE726000200704753EA01
:10031000020C00F069802DE9F04B4FF00006002B35
:100320001FBFB3FA83F503FA05F424FA05F65E401D
:1003300012BF1643B2FA82F502FA05F4C5F12005A0
:100340001EBF22FA05FC44EA0C04203556EA044C90
:100350004FEA144418BF641C4FF000084FF0000926
:10036000904271EB030C39D3002919BFB1FA81F720
:1003700001FA07F6B0FA80F700FA07F6C7F120078E
:100380001EBF20FA07FC46EA0C062037B6FBF4FC39
:10039000A7EB0507103F07F01F0BCBF120062CFA47
:1003A00006F60CFA0BFB44BFB3460026202FA4BF71
:1003B0005E464FF0000B5BEA060C08BF4FF0010BE6
:1003C00019EB0B0948EB0608ABFB027C06FB02CCE1
:1003D0000BFB03CCC01B71EB0C01C1E70B460246C3
:1003E00041464846BDE8F08B13B5084318BF4FF0AF
:1003F000FF300146AFF30080BDE81C4070470000AD
:10040000FEE7000070470000FEE70000FEE7000086
:10041000FEE70000704700007047000040F26800EF
:10042000C2F2000001680131016070474EF6885049
:10043000CEF20000016841F47001016070470000D5
:10044000FEE7000082B043F60804C4F20204D4F8C8
:10045000F8034EF60C5540F40070C4F8F803D4F8D5
:10046000F803CEF2000540F48060C4F8F803D4F835
:10047000F8034FF6FF0140F48070C4F8F8032868D1
:1004800040F20008084040F20031C0F2FA5108433F
:100490002860C2F20008D8F8000044F6D357C1F231
:1004A0006207A0FB07024FF0FF3101EB9212002020
:1004B000B0EB126F20D14EF21003CEF200035A605F
:1004C000F022EA75072298601A602A68C2F30222B5
:1004D00082F00703042B28BF04239940033A6FEAF4
:1004E000010138BF024691400901E97540F26C01F3
:1004F000C2F2000101220A700190E16B41F48041D7
:10050000E163E16B01F48041019101990190A16BDC
:1005100041F08051A163A16B01F0805101910199DB
:100520000190A16B41F08051A163A16B01F080515A
:1005300001910199019047F20000C4F200000168A6
:1005400041F480410160006800F48040019001980E
:10055000206800F00C00042837D154F8080C2068FB
:1005600000F00C00082865D154F8040C47F6FF7120
:10057000C0F64371084042F60421C0F2404188426F
:1005800040F0B080D4F8F80300F00700042808D841
:10059000052084F8F803D4F8F80300F007000528D4
:1005A00010D1206840F4E0502060206840F46040A2
:1005B0002060206820F0F000206054F8080C8001D2
:1005C00000F1938072B600BFFEE7206800F00C00D7
:1005D000082803D154F8040C4002BED454F8080C87
:1005E00040F4803044F8080C40F26800C2F2000089
:1005F000016854F8082C9203B1D40268521A642A94
:1006000070D854F8082C9203A9D40268521A642AAC
:1006100068D854F8082C9203A1D40268521A642AAC
:1006200060D854F8082C920399D40268521A642AAC
:10063000DFD957E06021C4F247210020086040F272
:100640006800C2F20000026854F8083C9B011CD507
:1006500003689B1A022B45D854F8083C9B0114D51B
:1006600003689B1A022B3DD854F8083C9B010CD51B
:1006700003689B1A022B35D854F8083C9B0104D51B
:1006800003689B1A022BDFD92CE042F60422C0F249
:10069000404244F8042C01220A60016854F8082CF6
:1006A00092013FF56FAF0268521A022A1AD854F825
:1006B000082C92013FF566AF0268521A022A11D83F
:1006C00054F8082C92013FF55DAF0268521A022AD5
:1006D00008D854F8082C92013FF554AF0268521A1A
:1006E000022ADBD972B600BFFEE72068022161F35F
:1006F000010040F268062060C2F20006306841F254
:100700008831226802F00C02082A22D03268121ABC
:100710008A423FF657AF226802F00C02082A18D02E
:100720003268121A8A423FF64DAF226802F00C027C
:10073000082A0ED03268121A8A423FF643AF226866
:1007400002F00C02082A04D03268121A8A42D8D960
:1007500038E7D4F8F80300F00600062809D1052090
:1007600084F8F803D4F8F80300F0070005287FF4B4
:1007700029AF2068052161F38C20206020680421C6
:1007800061F34F302060206800F00C0142F200401D
:100790000829C0F2F40006D0042926D141F2002035
:1007A000C0F27A0021E054F8041C01F03F0254F832
:1007B000041C54F8043C4902C3F3881105D4A1FB7E
:1007C00000010023FFF7A3FD06E041F20020C0F284
:1007D0007A004843B0FBF2F054F8041C0222C1F343
:1007E000014102EB4101B0FBF1F0216855A2C1F3D8
:1007F0000311515C20FA01F1A1FB07024FF0FF3019
:1008000000EB92120020B0EB126FC8F8001026D156
:1008100040F26C01C2F200014EF210070B78CEF2EA
:1008200000077A60F022EA750722012BB8603A606F
:1008300015D12A684FF0FF37C2F3022282F0070376
:10084000042B28BF0423033A07FA03F338BF00221E
:10085000DB4303FA02F21201EA7501220A700190E9
:10086000A16A4FF0030C41F00401A162A16A0027C4
:1008700001F00401019101990190A16A41F0800108
:10088000A162A16A01F08001019101990190A16A20
:1008900041F00201A162A16A01F0020101910199F6
:1008A0000190A16A41F00101A162A26A40F20041F7
:1008B00002F001020192019AC4F202014FF4802277
:1008C0008A61012205E000BF0137102F00F102000C
:1008D00018D002FA07F56C07F6D58C680CFA00F30D
:1008E0009C438C604C6824EA05054D60CD689D43AF
:1008F000CD600D6825EA030302FA00F52B430B6077
:10090000E2E700BF486900F0040040EA004080F0E0
:1009100004008861306800BF3268121AB2F5FA7FAD
:10092000F0D83268121AB2F5FA7FEBD83268121A90
:10093000B2F5FA7FE6D83268121AB2F5FA7FEBD92F
:10094000E0E700BF00000000000000000102030417
:1009500006070809F1EE100A4FF6FF71C0F2C03128
:1009600020EA010040F04070E1EE100A70470000FC
:10097000900900080000002008000000EC010008B9
:100980009809000808000020680600000C02000812
:080990000024F4000000000047
:040000050800018965
:00000001FF
