:020000040800F2
:100000001031002085020008451100083D1100084C
:1000100041110008950F0008891800080000000031
:100020000000000000000000000000004D1100086A
:10003000990F000800000000491100085111000844
:100040009F0200089F0200089F0200089F0200080C
:100050009F0200089F0200089F0200089F020008FC
:100060009F0200089F0200089F0200089F020008EC
:100070009F0200089F0200089F0200089F020008DC
:100080009F0200089F0200089F0200089F020008CC
:100090009F0200089F0200089F0200089F020008BC
:1000A0009F0200089F0200089F0200089F020008AC
:1000B0009F0200089F0200089F0200089F0200089C
:1000C0009F0200089F0200089F0200089F0200088C
:1000D0009F0200089F0200089F0200089F0200087C
:1000E0009F0200089F0200089F0200089F0200086C
:1000F0009F0200089F0200089F0200089F0200085C
:100100009F0200089F0200089F0200089F0200084B
:10011000751100089F0200089F0200089F02000856
:100120009F0200089F0200089F0200089F0200082B
:100130009F0200089F0200089F0200089F0200081B
:100140009F0200089F0200089F0200089F0200080B
:100150009F0200089F0200089F0200089F020008FB
:100160009F0200089F0200089F0200089F020008EB
:100170009F0200089F0200089F0200080000000084
:100180009F0200089F02000800F002F800F06BF8E0
:1001900014A696E8000CB244B344DA4501D100F04D
:1001A00062F8BAE80F000FA696E83000A5EB040548
:1001B00004EB0607AAEB0704A7F101074FEA1515A0
:1001C0004FEA3414A4F10104AC4201D300F04BF81F
:1001D00013F0010F18BFFB1A43F0010300F001F800
:1001E000DBE71847C8690000E8690000103A24BF3F
:1001F00078C878C1FAD8520724BF30C830C144BF8C
:1002000004680C6070470000704700000023002461
:1002100000250026103A28BF78C1FBD8520728BF16
:1002200030C148BF0B607047662905F0C783642959
:1002300000F0A480752900F0A180782900F0DA8010
:10024000732900F06484002070471FB505F0A9FBF6
:1002500000F074FC04000020002105F015FBE060B4
:100260001FBD10B510BD00F089FD1146FFF7EDFF71
:1002700004F0FEF800F0A7FD03B4FFF7F2FF03BCA3
:10028000AFF300800948804709480047FEE7FEE7D2
:10029000FEE7FEE7FEE7FEE7FEE7FEE7FEE7FEE736
:1002A00004480549054A064B7047000061110008E3
:1002B00089010008100100201031002010110020D9
:1002C000101100200FB4044910B503AA029800F0E1
:1002D00023FC10BC5DF814FB6800002070B50446D8
:1002E00085690068C10601D5302600E02026C007D8
:1002F00007D070BDD4E9012130469047206A401CE8
:1003000020626D1EF6D570BD70B504468569007813
:10031000C00707D170BDD4E9012120209047206A91
:10032000401C20626D1EF6D570BD70B50C460546AA
:10033000012A05D02878800600D5EA69002302E06A
:10034000012305E05B1C934202D2E05C0028F9D156
:10035000A869E618C01AA861286A184428622846C5
:10036000FFF7BCFF04E0D5E9012114F8010B904729
:10037000B442F8D32846FFF7C7FF70BD2DE9F0411E
:100380000646002410687529314616A510D0AFF333
:100390000080002802DA404213A507E031688A078E
:1003A00001D512A502E0490704D511A5012401E0F9
:1003B000AFF3008000210A2206F1240709E0B0FB18
:1003C000F2FCB0FBF2F302FB1C003030785418460C
:1003D000491C0028F3D123462A463046BDE8F041A7
:1003E00000F01CB9000000002D0000002B000000F0
:1003F0002000000070B504460D4621461068AFF39A
:1004000000802188090502D50F4A7A4402E00E4A8D
:100410007A440E32002104F1240305E000F00F06B7
:100420000009965D5E54491C0028F7D1207800230E
:10043000000704D5702D02D009B1022311322046E5
:10044000BDE8704000F0EAB8B25500002DE9F05F59
:10045000894604464FF0000ADFF874B1FB44C0F847
:1004600020A02046E1688847002874D0252806D0BF
:10047000D4E901219047206A401C2062F1E7002660
:100480005F462046E16888472028054607DB312D76
:1004900005D2781910F8200C08B10643F1E7B0072F
:1004A00001D526F00406C4F81CA00027C4F818A043
:1004B0002A2D09D0284605F0DFF938B304EB870868
:1004C000303DC8F8185019E059F8041B204604EBD9
:1004D00087029161E1688847012F054618D1E069DC
:1004E000002820DA26F020061DE0D8F8180000EBDE
:1004F000800005EB40003038C8F818002046E1685D
:100500008847054605F0B8F90028EED1012F0AD03A
:100510002E2D08D12046E16888477F1C0546022F12
:1005200046F02006C4DBA069002803DA404246F00A
:100530000106A061F00701D026F010066C2D0BD04B
:10054000682D09D04C2D39D06A2D35D0742D35D079
:100550007A2D33D016E038E0E1682F4620468847F0
:10056000B842054609D16C2F26D04FF48060E1686F
:10057000064320468847054604E06C2F1AD04FF406
:10058000807006430DB3A5F14100192802D820352B
:1005900046F400664A462946204626604E46FFF746
:1005A00043FE80B101280BD0F61D26F0070000F1B4
:1005B000080956E74020E4E78020D8E70020D6E786
:1005C00006F104094DE7284652E7206ABDE8F09F8E
:1005D0008855000010B5044603E003F035FF401CC9
:1005E00009D014F8010B05490028F6D1BDE81040E8
:1005F0000A2003F029BF4FF0FF3010BD6800002033
:1006000070477047704710B500F09CFA006810BD45
:1006100010B5044600F096FA046010BD2DE9F047CD
:100620000D4699469246044600F124080168880662
:1006300004D5E06921F01001216000E00120A8420A
:1006400001DD471B00E00027A1697A1902EB0900D0
:10065000081AA0612078C00602D42046FFF73EFEAB
:10066000002608E0D4E901211AF806009047206A24
:10067000401C761C20624E45F4DB2078C0060AD56B
:100680002046FFF72BFE06E0D4E9012130209047F9
:10069000206A401C2062381EA7F10107F4DC07E045
:1006A000D4E9012118F805009047206A401C206217
:1006B000281EA5F10105F3DC2046FFF725FE207872
:1006C000000602D50220BDE8F0870120FBE72DE9F6
:1006D000FF4F0C461E464FF0FF378BB0D2E90001AA
:1006E000DDF860800A908A46C1F30A5505B93D4697
:1006F000002108464FF00000BAF1000F00F440005E
:1007000005DA00EB80004FF4400101EA50004FEAA7
:100710009059B9F1010F00DDB9460A9850EA4A0034
:100720000ED044F61050A5F2FF3545432F14B8F112
:10073000000F1ED07542291E1EDDC9F100021CE00B
:10074000B8F1010F4FF0000001D0302103E0F24377
:1007500005E02154401CB042FBDB30460022002162
:1007600021540B99C1F80880C1E900200FB0BDE801
:10077000F08FBD1B6D1CDEE74A4600DA694206A811
:1007800000F082FA06AB93E8070003AB83E80700AA
:1007900050460A9904F036FA8DE80700A0F500509B
:1007A0001F3800900398002D0ADD42F21F014A46CF
:1007B0000844002303A90390684604F09FFC09E065
:1007C000A0F500504A461F38002303A9039068464D
:1007D00004F0A9FC8DE807000004000C03D04FF0E2
:1007E000FF30410800E01046B8F1000F03D00022AE
:1007F000009215461EE0751E05D400F0A7F93032B0
:1008000062556D1EF9D5B3460122084302D000227D
:100810007F1C04E02078302801D100227F1E002AAE
:10082000099784D01DE0112D07DA00F08FF93032DE
:1008300062556D1C50EA0102F5D1084302D00098C0
:10084000C8B10EE00021681E05E0235C625C6354C1
:100850002254401E491C8142F7DBAB46A81B401EB8
:100860000990002004F80B000B98099AC0F8088042
:10087000C0E9002B7AE711264FF0000857E72DE971
:10088000F04F88460446D21D22F0070191B0D1E90D
:100890000001CDE90A0104F07DFD02460B98C00F6E
:1008A00001D02D2007E02068810701D52B2002E030
:1008B000202101EAC000032A099001D0072A05DBA4
:1008C00003464146204600F09FF90BE12078800660
:1008D00001D5E06900E00620B8F1650F814606D039
:1008E000B8F1660F18D0B8F1670F70D131E0002071
:1008F000B9F1110F009001DB112301E009F10103AF
:100900000AAA01A90CA8FFF7E2FEDDE90C70002697
:1009100009F10105834647E001204B4600904FF066
:1009200000470AAA01A90CA8FFF7D1FEDDE90DB026
:100930000C995D46002610B909F101000D18B9EBBC
:10094000050003D4C0F1FF3609F10105A5EB09004C
:100950002BE0B9F1010F01DA4FF001090020B9F1E4
:10096000110F0090484601DD112300E003460AAA5A
:1009700001A90CA8FFF7ABFEDDE90C704D4600267F
:100980008346207800070AD4AB4500DA5D4601A80B
:10099000012D04DD411911F8011C302907D04F4504
:1009A00002DA17F1040F04DA012082460FE06D1E0F
:1009B000EEE7002F02DCED1B3E4403E0781CA8426A
:1009C00000DD7D1CB81B00F1010A4FF000472078C4
:1009D000000703D4AA4501DB4FF0FF3A0021B7F12D
:1009E000004F0DF143088DF8431024D002202B2333
:1009F000002F01DA7F422D230A21021EA0F10100FF
:100A000000DC5FB197FBF1FC97FBF1F201FB1C7C72
:100A100017460CF1300C08F801CDEEE7A8F1010003
:100A200003702188090501D5452100E06521A0F169
:100A3000010800F8011C09980FA9A1EB0807FF1D88
:100A400000B10120411901EBEA70A1693844081A8C
:100A5000401EA0612078C00602D42046FFF73EFC6D
:100A6000099828B1D4E901219047206A401C2062EE
:100A70002078C00622D52046FFF730FC1EE0002E6D
:100A800004DBB34502DD01A8805D00E03020D4E93D
:100A900001219047206A401C2062761CAAF10100C7
:100AA0005FEA000A0AD100F049F8C0680168405CBA
:100AB000D4E901219047206A401C2062281EA5F13C
:100AC0000105DCDC07E0D4E9012118F8010B9047AF
:100AD000206A401C2062381EA7F10107F3DC204683
:100AE000FFF712FC032011B041E610B5436913B1C2
:100AF000AFF3008001E0FFF718FC012010BD127871
:100B000000F124010A7000224A700122EDE7116809
:100B10004FF0FF32E9E70000074B70B50D467B440C
:100B200000F05FF80446284600F020F910B14FF0BD
:100B3000FF3070BD204670BD273900000048704767
:100B400028000020004870470800002030B5B0F1B0
:100B50000A0271F100034FEA900E4EEA817EB0EB7B
:100B60000E0061EB91014FEA101E4EEA017E10EB80
:100B70000E0041EB11114FEA102E4EEA016E10EB00
:100B80000E0041EB11214FEA104E4EEA014E10EBE0
:100B90000E0041EB1141401841F100014FEAD00035
:100BA00040EA41704FEAD1014FEA810444EA90746F
:100BB00010EB800544EB01046D1944EB0404521B57
:100BC000A3414FF0000348BF0A3200D530BD401C9E
:100BD00041F1000130BD000001694A1C0261087842
:100BE000704700B58FB0CDE901310021059105496D
:100BF0007944CDE9031011466846FFF727FC0FB092
:100C000000BD0000E5FFFFFF2DE9F0411F4604464F
:100C100003260168072A01F4006004DB08B116A569
:100C200005E016A503E008B115A500E015A521F023
:100C300010002060A069C01EA0610FB1401EA0611D
:100C40002046FFF74BFB4FB1D4E9012138469047CE
:100C5000206A401C2062C01C206206E0206AFAE77D
:100C6000D4E9012115F8010B9047761EF8D22046F1
:100C7000FFF74AFBBDE8F0814E414E006E616E0009
:100C8000494E4600696E66002DE9F04781461646DA
:100C90008AB0354878440DC88DE80D003248784454
:100CA000801C03AC0DC884E80D0041F69B3008445D
:100CB000372190FBF1F290FBF1F5A5F1800501FBE6
:100CC00012041B3C02D56442012000E00020DFF842
:100CD00098A080460027FA44AAF1BE0A0EE0E00779
:100CE0000AD03246684607EB470101230AEB81012F
:100CF00004F019FA8DE8070064107F1C002CEED177
:100D0000194F7F44AE3F19E0E80715D007EB0410F8
:100D10000DF1180A90E80E008AE80E00C068F04253
:100D200001D1981908903246012306A903A804F0BE
:100D3000FAF903AB83E807006D10641C002DE3D1C2
:100D40004FF0010332466946B8F1000F03A802D004
:100D500004F0D4F901E004F0E6F9C9E90001C9F8AA
:100D600008200AB0BDE8F087404E0000007B00F08C
:100D70008000704700487047080000207546FFF764
:100D8000F9FFAE4605006946534620F00700854648
:100D900018B020B5FFF784FABDE820404FF00006F8
:100DA0004FF000074FF000084FF0000BAC46ACE8E6
:100DB000C009ACE8C009ACE8C009ACE8C00921F042
:100DC00007018D46704710B50446AFF300802046FA
:100DD000BDE81040FFF750BA30B44FF0013C50F876
:100DE000042B51F8043BCCFA52F4D51A20D1FCB9AB
:100DF00050F8042B51F8043BCCFA52F4D51A17D111
:100E0000B4B950F8042B51F8043BCCFA52F4D51A7B
:100E10000ED16CB950F8042B51F8043BCCFA52F4C3
:100E2000D51A05D1002CDAD030BC4FF00000704745
:100E300029BAB1FA81F111F01801D1F120008440F2
:100E4000F2D1CA40CB4012F0FF0213F0FF0330BCD6
:100E5000D01A704753EA020C00F069802DE9F04B7C
:100E60004FF00006002B1FBFB3FA83F503FA05F419
:100E700024FA05F65E4012BF1643B2FA82F502FA72
:100E800005F4C5F120051EBF22FA05FC44EA0C0456
:100E9000203556EA044C4FEA144418BF641C4FF046
:100EA00000084FF00009904271EB030C39D3002980
:100EB00019BFB1FA81F701FA07F6B0FA80F700FA24
:100EC00007F6C7F120071EBF20FA07FC46EA0C060A
:100ED0002037B6FBF4FCA7EB0507103F07F01F0B0C
:100EE000CBF120062CFA06F60CFA0BFB44BFB346F6
:100EF0000026202FA4BF5E464FF0000B5BEA060CD5
:100F000008BF4FF0010B19EB0B0948EB0608ABFBD0
:100F1000027C06FB02CC0BFB03CCC01B71EB0C016B
:100F2000C1E70B46024641464846BDE8F08B13B583
:100F3000084318BF4FF0FF300146AFF30080BDE813
:100F40001C4070474FF0000200B513469446964689
:100F5000203922BFA0E80C50A0E80C50B1F12001CC
:100F6000BFF4F7AF090728BFA0E80C5048BF0CC07A
:100F70005DF804EB890028BF40F8042B08BF7047D8
:100F800048BF20F8022B11F0804F18BF00F8012B4A
:100F900070470000FEE70000704700002DE9F04FA9
:100FA00082B000F13E4707F1FF77860546EA9727B2
:100FB00041F60046C4F20206082243F6004EB04253
:100FC00008BF0722C4F2010E072F38BF3A46002699
:100FD00000274FF00008009209E000BF08F1010867
:100FE0000437B8F1100F06F1020600F0A3800D6877
:100FF000012202FA08F415EA0409EFD0D1F804B08E
:1010000003220BF0030CACF10105B240012D6FEA95
:10101000020A0FD88268CD6802EA0A02B5402A4364
:1010200082604268A243CBF3001404FA08F422431E
:10103000426005E0BCF1030F02D14FF0030C1EE04B
:10104000C2688C6802EA0A02B4402243BCF1020F73
:10105000C26014D16FF0030202EA58020244D2F8CF
:1010600020C007F01C040F230D69A3402CEA0303E2
:10107000A5402B431362D1F804B00BF0030C0268B7
:101080000CFA06F302EA0A021A431BF4403F02601C
:10109000A4D0002243F644030192C4F202031A686A
:1010A0004FF6084C42F480421A601A68CFF6FF7C73
:1010B00002F480420192019A28F00302724452F82D
:1010C0000C3007F00C050F24AC40A343009C04FA3D
:1010D00005F52B4342F80C30DEF808204B6842EA55
:1010E000090543F60C4CDC0258BF22EA0905CEF88C
:1010F0000850C4F2010CDCF800209C0242EA090509
:1011000058BF22EA0905CCF80050DEF804209C0301
:1011100042EA090558BF22EA0905CEF80450DEF874
:101120000020DB0342EA090558BF22EA0905CEF890
:10113000005053E702B0BDE8F08F0000FEE700006A
:10114000FEE70000FEE70000704700007047000067
:1011500040F20410C2F200000168013101607047E2
:101160004EF68850CEF20000016841F47001016033
:1011700070470000B0B582B040F2BC05C2F2000575
:1011800028680168C368446901F02F02202A03F02F
:10119000200205D122B102B0BDE8B04000F000BB92
:1011A0005FEA017C1EBF04F0010E03F4907414EB9F
:1011B0000E0440F0B8802A6BCC0640F19780012ADB
:1011C00040F0948013F0100200F090800021019113
:1011D000016801914168019101994069400600F15F
:1011E000AC80A88DE98DEA8D002A18BF884201D114
:1011F00002B0B0BD286850E8030F296820F4907051
:1012000041E80302BAB3286850E8030F296820F4C4
:10121000907041E8030272B3286850E8030F296810
:1012200020F4907041E803022AB3286850E8030FC5
:10123000296820F4907041E80302002ADAD11AE00C
:10124000286850E8050F296820F0010041E80502F0
:10125000DAB1286850E8050F296820F0010041E85C
:10126000050292B1286850E8050F296820F00100B6
:1012700041E805024AB1286850E8050F296820F0C6
:10128000010041E80502002ADAD1202085F8420059
:1012900000202863286850E8030F296820F0100018
:1012A00041E80302002A00F05481286850E8030F47
:1012B000296820F0100041E80302002A00F049816B
:1012C000286850E8030F296820F0100041E8030265
:1012D000002A00F03E81286850E8030F296820F0BA
:1012E000100041E80302002AD4D132E10A0640F19D
:1012F000188113F0800200F0148195F84110212923
:101300007FF476AFAA68296AB2F5805F40F0158253
:101310002A69002A40F0118231F8022B6FF35F2214
:10132000426029620DE2CC0718BF13F4807340F0CD
:1013300014814B0700F117811CE1E86B01684968D3
:10134000AB8D8AB2002A00F0FC809A4280F0F980CE
:10135000E985C069B0F5807F00F01282286850E806
:10136000030F296820F4807041E80302DAB128688D
:1013700050E8030F296820F4807041E8030292B11D
:10138000286850E8030F296820F4807041E80302C0
:101390004AB1286850E8030F296820F4807041E8BA
:1013A0000302002ADAD1286850E8050F296820F0E6
:1013B000010041E80502BAB3286850E8050F296822
:1013C00020F0010041E8050272B3286850E8050FDB
:1013D000296820F0010041E805022AB3286850E896
:1013E000050F296820F0010041E80502002ADAD142
:1013F0001AE0286850E8050F296820F0400041E80D
:101400000502DAB1286850E8050F296820F040008D
:1014100041E8050292B1286850E8050F296820F0DC
:10142000400041E805024AB1286850E8050F2968E4
:1014300020F0400041E80502002ADAD1202085F89A
:10144000420000202863286850E8030F296820F034
:10145000100041E80302DAB1286850E8030F296858
:1014600020F0100041E8030292B1286850E8030F11
:10147000296820F0100041E803024AB1286850E8CA
:10148000030F296820F0100041E80302002ADAD196
:10149000E86B40F20412C2F20002D0F858C01368A0
:1014A00090F83510022940F05C810168D0F840E0E6
:1014B0000C68BEF1000F24F016040C604C6924F097
:1014C00080044C6101D1846C1CB10C6824F00804C8
:1014D0000C600C6824F001040C600C68E40700F058
:1014E00043811468E41A052C17D80C68E40700F04F
:1014F0003B811468E41A052C0FD80C68E40700F04F
:1015000033811468E41A052C07D80C68E40700F04E
:101510002B811468E41A062CDFD3202141650321B6
:1015200029E149067FF564AE13F040013FF460AE57
:10153000C16821F04001C160202085F8410002B05F
:10154000B0BD93427FF454AEC069B0F5807F7FF4A4
:101550004FAE0220686302B0B0BD6B6C43F0010374
:101560006B644B0706D5BEF1000F03D06B6C43F0E4
:1015700002036B648B0706D5BEF1000F03D06B6CC2
:1015800043F004036B64BCF1000F06D55EEA02036E
:1015900003D06B6C43F008036B646B6C002B3FF45F
:1015A00027AE890603D512B100F0FAF82868406921
:1015B000696C00F0400001F00801401800F0B980AB
:1015C000286850E8030F296820F4907041E803026E
:1015D000BAB3286850E8030F296820F4907041E8F6
:1015E000030272B3286850E8030F296820F4907052
:1015F00041E803022AB3286850E8030F296820F461
:10160000907041E80302002ADAD11AE0286850E815
:10161000050F296820F0010041E80502DAB12868C9
:1016200050E8050F296820F0010041E8050292B159
:10163000286850E8050F296820F0010041E80502FC
:101640004AB1286850E8050F296820F0010041E8F8
:101650000502002ADAD1286B012824D1286850E835
:10166000030F296820F0100041E80302DAB128686E
:1016700050E8030F296820F0100041E8030292B1FE
:10168000286850E8030F296820F0100041E80302A1
:101690004AB1286850E8030F296820F0100041E89B
:1016A0000302002ADAD1202085F8420000202863B6
:1016B0002868406940067FF59BAD286850E8050F13
:1016C000296820F0400041E80502DAB1286850E8B6
:1016D000050F296820F0400041E8050292B1286812
:1016E00050E8050F296820F0400041E805024AB1A2
:1016F000286850E8050F296820F0400041E80502FD
:10170000002ADAD1E86B00283FF472AD41F29971FA
:10171000C0F60001016590F83510022935D1052188
:1017200080F835100068016821F00101016002B005
:10173000B0BD0020686402B0B0BD4A1C2A620978BE
:101740004160E98C01390A04E9847FF451ADC16834
:1017500021F08001C160C16841F04001C16002B068
:10176000B0BD8021416508E0C16D3F2202FA01F160
:10177000CCF80810012180F83510002180F83410D1
:1017800002206863E88D02B0B0BD8021416502B0DF
:10179000BDE8B040AFF30080806B0021C185704789
:1017A00040F2BC00C2F2000090F84210222918BF9B
:1017B000704781B08168B1F5805F09D10169826AA3
:1017C00051B901684B686FF35F2322F8023B0CE0CC
:1017D0000369826A194302D101684B6803E001681A
:1017E0004B6803F07F0302F8013B8262C28D013A2D
:1017F0001304C28501D001B07047CA6822F02002EC
:10180000CA60CA6822F48072CA604A6922F0010282
:101810004A61202180F8421000214163026B012AB5
:10182000E9D10163016851E8031F026821F010014A
:1018300042E80313DBB1016851E8031F026821F09D
:10184000100142E8031393B1016851E8031F0268D5
:1018500021F0100142E803134BB1016851E8031F66
:10186000026821F0100142E80313002BDAD100686E
:101870000168C906BFD50021009101680091406848
:101880000090009801B07047FEE700002DE9F04F8E
:1018900081B02DED0C8B84B005464068002869D0DE
:1018A00005F1080898E8C0019FED6C8A9FED6CAACD
:1018B000081F14464FF0000ABEEE009A02900192F3
:1018C0001AE000BFB0EE48CAB0EE48BA03982CEE5A
:1018D000090A2BEE091A31EE00BA90ED000A00F168
:1018E000040803F083FD69683BEE000A0AF1010A6F
:1018F000A4EC010A8A452ED22868CDF80C80002875
:10190000E0D0DDF808904FF00008B0EE48BAB0EE35
:1019100048CA00BFB7EC010A95ED051A09F1040B9E
:1019200030EE01DA2DEE0A0A03F060FD99ED011A9E
:10193000B6EC012A286831EE421A21EE011A81EE36
:101940000D1A08F101083CEE00CA8045D9463BEE6D
:1019500001BADFD3BAE74B1E79D0019A881E92ED07
:10196000000A032803F0030C0BD20020BCF1000F87
:101970003FD16DE092ED000A4FF0FF3300214FF0B0
:10198000030C23F00307CE1A0020002592ED011A64
:1019900092ED022A92ED033AB4EE410A741992EDE7
:1019A000044AF1EE10FABCBFB0EE410A2046B4EE94
:1019B000420AF1EE10FABCBFB0EE420A601CB4EE6F
:1019C000430AF1EE10FABCBFB0EE430AA01CB4EE1D
:1019D000440AF1EE10FA05F10405BCBFB0EE440A6A
:1019E000E01CAF4202F11002D0D15B1BBCF1000F32
:1019F0002ED092ED011AC91AB4EE410AF1EE10FA96
:101A0000B8BF0846BCF1010F22D092ED022AB4EE15
:101A1000410AF1EE10FAB8BFB0EE410AB4EE420A44
:101A2000F1EE10FAB8BF481CBCF1020F10D092EDD5
:101A3000031AB4EE420AF1EE10FAB8BFB0EE420A51
:101A4000B4EE410AF1EE10FAB8BF881C00E00020A5
:101A500004B0BDEC0C8B01B0BDE8F08F00000000BD
:101A6000DB0FC9402DE9F04F81B02DED108BA0B0F8
:101A7000DFED05CACDE90332021D0C300E4601929E
:101A800000901C9102E000BFF304353FF30826F0FC
:101A900007001B90D8000E90A0EBD600C0001A9053
:101AA00003EB43000201C70003EB83004FEA031E70
:101AB000C400384602935F01019BF5004FF0000B14
:101AC000CDE91D65CDE90B421F9700BF1F9903EBC0
:101AD00004085F181B9903EB0E0603EB01091A9922
:101AE0001A4403EB000A03EB010C13ED011A17ED86
:101AF000012A19ED013A18ED014A16ED017A52ED6D
:101B0000010A5AED011A5CED012A31EE025A33EE58
:101B1000046A77EE203A71EEA24A75EE235A76EE09
:101B2000246A75EEA67A43ED017A75EEE65AD9ED90
:101B3000007A98ED008A9AED00BA9CED00CAD3EDC8
:101B4000006A47ED015AD7ED005A96ED009A92EDE2
:101B500000AA37EE88EA7BEE0C8A36EEA5DA39EE7B
:101B60000AFA35EE635A36EE646A7EEE684A7DEE16
:101B70000F9A7DEE4F3A35EE24DA35EE645A7EEE5A
:101B800028AA06ED01DA33EEC6DA02ED015A36EE86
:101B9000235A31EE421A33EE442A37EE603A31EEE0
:101BA000E24A37EEC86A7BEE4C0A79EEAABA79EEC1
:101BB000EA9A72EE441A32EE042A36EE604A36EEA3
:101BC000206AC3ED00BAC7ED009A86ED00DA1D9ECB
:101BD00082ED005A36EEE55A39EE4A7A61EEAC1AD9
:101BE00022EE2C2A24EE2C4A26EE2C6ADDE91E5722
:101BF0001C9971EE210A73EE022A75EE043A77EE13
:101C0000064A31EE611A33EE422A35EE443A37EE97
:101C1000464A70EEA45A70EEE40ADDE90B4231EE5A
:101C2000045A31EE441AB34449ED015A73EEE25AB4
:101C30004CED010A72EEA30A08ED015A33EE425A46
:101C40000AED011A32EE031A8B452B44C9ED005AF6
:101C5000CCED000A88ED005A8AED001AFFF436AF89
:101C6000402EC0F0B5810399029A079088B2CDF852
:101C700034E00690022AC2EBC20198BF0222DDF8CE
:101C80000080CE0000254FF0010E05920698049BBF
:101C9000054403EBC50191ED000ADDF81CC08DED94
:101CA0001B0A91ED010A03EB05118DED1A0A91ED66
:101CB000000ADDE90B408DED190A91ED010A05EBF3
:101CC000450103EBC1028DED180A92ED000A03EB0A
:101CD00001118DED170A92ED010A03EB45128DED0E
:101CE000160A92ED000A0A958DED150A92ED010A89
:101CF00005EB850203EBC2028DED140A92ED000A9A
:101D0000CDE9088E8DED130A92ED010A8DED120AD0
:101D100091ED000A8DED110A91ED010AC5EBC501A7
:101D200003EBC1018DED100A91ED000AD1ED016ABE
:101D30008DED0F0A0E9908EB070A08EB01090D99C2
:101D400008EB040308EB010708EB000B08EB0C029F
:101D50003546464458ED017A1AED018A19ED019A8B
:101D600013ED01AA17ED01DA1BED01EA12ED01FAFC
:101D700056ED018A37EE88BA39EE0ACA7DEE0E9A20
:101D80007FEE28AA7BEE29BAF0EE6C3A7CEE2ACAE6
:101D90007BEEACDA48ED01DA7BEEECBAD8ED00CAA6
:101DA000DAED00DAD9ED00EAD3ED00FA97ED000A9A
:101DB0009BED001A92ED002A96ED003A3CEEAD4AFA
:101DC0003EEEAF5A30EE016A32EE037A74EE060A46
:101DD00075EE071ADDED154ADDED145A70EEA12AF5
:101DE00070EEE10AC8ED002A64EEAB1A65EEA02A97
:101DF00071EEA21A64EEA00A65EEAB2A70EEE20A5A
:101E00004AED011ACAED000A7BEE690A7CEE6A1AF5
:101E100034EE464A35EE475A9DED19CADDED189A63
:101E200030EE856A34EE617A6CEE062A29EE87BAC6
:101E30002CEE077A29EE866A30EEC55A31EE844AD6
:101E4000DDED110ADDED101A37EE466A87ED006A06
:101E500020EE856A21EE847A20EE844A21EE855AAE
:101E600037EE066A34EE454A39EE4A5A3FEE687A52
:101E70007EEEEF1A30EE410A32EE431A7BEE222A52
:101E800035EE472A35EE073A31EEC15A31EE811A66
:101E900047ED012A0BED016A8BED004A37EEC84A87
:101EA0003DEE4E6A7CEEED0A22EE232A23EE233A23
:101EB00025EE235A21EE231AF0EE63CA34EE027A9D
:101EC00076EE031A70EE852A70EE017ADDED1B3A8C
:101ED0009DED1ACA37EE278A32EEE19A23EE88AAE0
:101EE0002CEE09BA23EE899ADDED0F3A37EE677AC8
:101EF00071EEA21A63EE872A66EEA17A63EEA11A4A
:101F000026EE877A2CEE088A31EEC77A34EE422A22
:101F100036EE433A30EEC54A30EE410ADDED130AA3
:101F2000DDED121A39EE488A32EE001A34EE435AC9
:101F300089ED008A86ED007A20EE816A21EE857AAD
:101F400020EE855A21EE811A35EE411A83ED001AF2
:101F500033EE041A9DED174A9DED165A32EE400AF3
:101F600024EE002A25EE013A24EE011A25EE000A9D
:101F70003AEE0BAA72EEA72A36EE076A32EE032A71
:101F800031EE400A09ED01AA46ED012A03ED016A8E
:101F900002ED012A82ED000A1D9A1C9996441E9AB0
:101FA0001F9F2E468E459044FFF4C4AEDDF824E01A
:101FB0000598DDF820800EF1010E0A9D864508F196
:101FC00008087FF463AE0398029EC00003905DE5AD
:101FD00020B0BDEC108B01B0BDE8F08F2DE9F04FC3
:101FE00084B0036890ED020A002B00F0528144682F
:101FF000002C00F04E81D0E903E8012B04D100272A
:1020000004F003030397E1E0CDE9010223F00100AE
:102010000390201F20F003009FEDA51A4FEA840CC7
:10202000009304F0030324F0030900F1040AA1F172
:10203000100B002615E000BF46F0010023EE022A37
:102040000EEB800032EE000A90ED002A039822EE9B
:10205000042A023602EB0C08864232EE000A00F037
:10206000B080042C06D200224546B0EE412A6BBB5C
:102070004AE000BF5F464A464546B0EE412A00BFEF
:1020800097ED043A95ED007A97ED054AD5ED010AF2
:1020900097ED065AD5ED021A23EE073A97ED076A37
:1020A000D5ED032A33EE022A24EE203A33EE022A3B
:1020B00025EE213A33EE022A26EE223A1037103569
:1020C00033EE022A043ADBD15246EBB101EB820037
:1020D00090ED003A95ED004A012B23EE043A33EEE1
:1020E000022A11D090ED013A95ED014A022B23EE20
:1020F000043A33EE022A07D090ED023A95ED024AF7
:1021000023EE043A33EE022A0EEB860090ED003AFD
:10211000042C08EB0C0205D200271546B0EE414A0C
:1021200073BB89E758464F461546B0EE414A00BF9B
:1021300090ED045AD5ED001A90ED056AD5ED012A0F
:1021400090ED067AD5ED023A25EE215AD0ED070A38
:10215000D5ED034A35EE044A26EE225A35EE044AFE
:1021600027EE235A35EE044A20EEA45A10301035DB
:1021700035EE044A043FDBD15746002B3FF45CAFF9
:1021800001EB870090ED005A95ED006A012B25EEDA
:10219000065A35EE044A3FF44FAF90ED015A95EDE3
:1021A000016A022B25EE065A35EE044A3FF444AF8D
:1021B00090ED025A95ED026A25EE065A35EE044A74
:1021C0003AE70098C007DDE9010262D0042C03D28F
:1021D0009FED371A00262CE024F003069FED341AF9
:1021E000A1F11007344600BF97ED042A98ED006A6C
:1021F00097ED053A98ED017A97ED064AD8ED020A77
:1022000022EE062A97ED075AD8ED031A32EE011A8C
:1022100023EE072A32EE011A24EE202A32EE011AAA
:1022200025EE212A103708F1100832EE011A043C7D
:10223000DAD12BB301EB860797ED002A98ED003A2F
:10224000012B22EE032A32EE011A19D046F00107C3
:1022500001EB870797ED002A98ED013A022B22EE59
:10226000032A32EE011A0BD046F0020301EB830180
:1022700091ED002A98ED023A22EE032A32EE011A7D
:1022800003990EEB810191ED002A22EE011A31EE45
:10229000000A40690021B5EE400AF1EE10FAC8BF0D
:1022A000012150F82100106004B0BDE8F08F00BF9C
:1022B00000000000000000002DE9F04F81B02DED7E
:1022C0000E8BADF5106D46F25A10C0F60000FEF709
:1022D00081F946F29910C0F60000FEF77BF946F24C
:1022E0005C10C0F60000FEF775F946F25400C0F627
:1022F0000000FEF76FF946F22935C0F6000546F2F8
:10230000A721C0F600012846FDF7DCFF9FEDFC0B7E
:1023100046F29439C0F6000953EC102B4846CDE93B
:102320001623FDF7CFFF46F2D216C0F60006304660
:10233000FDF7C8FF9FEDF40B484653EC102BCDE999
:102340001E32FDF7BFFF3046FDF7BCFF9FEDF00BDF
:10235000484653EC102BCDE91823FDF7B3FF304668
:10236000FDF7B0FF9FEDEC0B48465AEC108B424650
:102370005346FDF7A7FF46F28614C0F60004204638
:10238000FEF728F946F26021C0F600012846FDF765
:1023900099FF9FEDE30B48465BEC107B3A465B46AA
:1023A000FDF790FF3046FDF78DFF48463A465B4605
:1023B000FDF788FF3046FDF785FF48463A465B4605
:1023C000FDF780FF3046FDF77DFF48463A465B4605
:1023D000FDF778FF2046FEF7FDF846F28D21C0F6A6
:1023E00000012846FDF76EFF9FEDCF0B484653ECEA
:1023F000102BCDE91423FDF765FF3046FDF762FF92
:10240000484642465346FDF75DFF3046FDF75AFF0A
:102410009FEDC70B484653EC102BFDF753FF30469A
:102420003446FDF74FFF9FEDC40B484653EC102B8D
:10243000FDF748FF46F28615C0F600052846FEF770
:10244000C9F846F2293646F24621C0F60006C0F623
:1024500000013046FDF736FF9FEDB90B484653ECBF
:10246000102BFDF72FFF2046FDF72CFF9FEDB60B3D
:10247000484653EC102BCDE90623FDF723FF2046F9
:10248000FDF720FF9FEDB20B484653EC102BCDE932
:102490001C23FDF717FF2046FDF714FF48463A4678
:1024A0005B46FDF70FFF2846FEF794F846F2EF1162
:1024B000C0F600013046FDF705FF9FEDA70B48462B
:1024C00055EC106B32462B46FDF7FCFE2046FDF71F
:1024D000F9FE48463A465B46FDF7F4FE2046FDF716
:1024E000F1FEDDF858A0DDF85C80484652464346D0
:1024F000FDF7E8FE2046FDF7E5FEDDE91E32484621
:10250000FDF7E0FE46F28610C0F60000FEF762F826
:102510009FED930B45F6006053EC102BC0F60000C6
:10252000FDF7D0FE46F2792146F22930C0F60001CF
:10253000C0F60000FDF7C6FE9FED8B0B484653EC3E
:10254000102BFDF7BFFE2046FDF7BCFE4846324685
:102550002B461A961B95FDF7B5FE2046FDF7B2FEF9
:102560009FED830B484653EC102BCDE91223FDF76A
:10257000A9FE2046FDF7A6FE48463A465B46089768
:10258000CDF824B0FDF79EFE46F28616C0F6000692
:102590003046FEF71FF846F2293546F20421C0F610
:1025A0000005C0F600012846FDF78CFE484652465D
:1025B0004346FDF787FE2046FDF784FE9FED6E0B38
:1025C000484653EC102BFDF77DFE2046FDF77AFEC2
:1025D000DDE91E324846FDF775FE2046FDF772FE26
:1025E0009FED670B484653EC102BCDE90C23FDF70C
:1025F00069FE3046FDF7EEFF46F26F00C0F60000C0
:10260000FDF7E8FF46F2C021C0F600012846FDF7BD
:1026100059FE9FED5D0B48465AEC10BB5A46534697
:10262000FDF750FE2046FDF74DFE48465A465346FC
:10263000FDF748FE2046FDF745FEDDE91423484638
:10264000FDF740FE3046FDF7C5FF46F2DC21C0F63F
:1026500000012846FDF736FE48465A465346FDF728
:1026600031FE2046FDF72EFE9FED490B484653EC08
:10267000102BCDE91023FDF725FE2046FDF722FEA5
:10268000DDE91C234846FDF71DFE2046FDF71AFE36
:102690009FED410B484653EC102BCDE90E23FDF77F
:1026A00011FE3046FDF796FF46F2D511C0F6000147
:1026B0002846FDF707FE9FED3A0B484653EC102BDA
:1026C000FDF700FE2046FDF7FDFDDDE91823484635
:1026D000FDF7F8FD3046FDF77DFF9FED330B002140
:1026E00045F69170C4F25101002653EC102BC0F650
:1026F0000000CDE9006100F08DB800BF00BF00BF51
:102700000000000000001840000000000000204011
:1027100000000000000024400000000000002840ED
:102720000000000000001040000000000000144005
:1027300000000000000035400000000000004040A4
:10274000000000000000F83F00000000000004400E
:1027500000000000000008400000000000000040F1
:102760000000000000805140000000000000F0BFA9
:1027700000000000000008C00000000000001C4035
:102780000000000000002240000000000000F03FB8
:1027900000000000000000C000000000000010C0A9
:1027A00000000000000014C000000000000032C063
:1027B000000000A099990940000000609EA0E63F3B
:1027C000000000000000000000000040E1FFDF3FCB
:1027D00000000000A1A0E63F000000005FB6EB3F54
:1027E0000000000000A1E63F0000008026FFEF3F50
:1027F00000000000F8FFFF3F000000800ABF054016
:10280000000000C0648E1D40CDCCCC3DCDCC4C3EF4
:10281000CDCCCC3EFDF756FD46F2DF00C0F6000001
:10282000FDF7D8FE1FED1E0B45F6C95053EC102BDB
:10283000C0F60000FDF746FD46F28910C0F6000024
:10284000FDF7C8FE1FED240B4AF29E0145F6B87055
:10285000C3F6E6714FF0C04753EC102BC0F60000F2
:10286000CDE90071FDF72EFD0FF6D030FDF7B2FE79
:102870001FED2D0B002045F64765C3F6F07046F2BC
:10288000013157EC108BC0F60005CDE90260C0F6AF
:102890000001284642463B460091FDF713FD4BF2EE
:1028A0005B60C3F6EB704FF000511FED390BCDE9C3
:1028B000021046F21231C0F6000153EC102B2846EC
:1028C0000091FDF7FFFC4AF29B00C3F6E6704FF063
:1028D00060411FED410BCDE9021046F20D31C0F60B
:1028E000000153EC102B28460091FDF7EBFC4FF64E
:1028F000D470C3F6DF704FF0C0411FED490BCDE936
:10290000021046F20831C0F6000153EC102B2846A5
:102910000091FDF7D7FC44F20C60CBF6CC604FF091
:102920000041CDE9021046F20331C0F6000128460D
:102930005A4653460091FDF7C5FC1FED570B0FF6A5
:10294000183053EC102B45F68421FDF7BBFC46F202
:102950002935C0F600050FF62C312846FDF7B2FCEC
:10296000484642463B46CDF828800B97FDF7AAFC27
:102970002046FDF7A7FC1FED640B484653EC102BD7
:10298000FDF7A0FC2046FDF79DFC1FED670B4846B8
:1029900053EC102BFDF796FC46F28617C0F60007A5
:1029A0003846FDF717FE0FF6F4212846FDF78AFC9E
:1029B00048465A465346CDF860B0CDF864A00DF5B0
:1029C0009D65FDF77FFC2046FDF77CFC1FED760B37
:1029D000484653EC102BFDF775FC2046FDF772FCC2
:1029E0001FED790B484653EC102BFDF76BFC384676
:1029F000FDF7F0FD0FF6B420FDF7ECFD0DF1E80852
:102A000008F104002421FEF79DFA4FF07E503A9021
:102A10000DF59D603821FEF795FA1FED850A1FED33
:102A2000851A1FED852A24A8AA1992ED005A92ED65
:102A3000016A92ED027A08EB0603D2ED030A25EE55
:102A4000005A66EE011A93ED003A31EE855A67EEB0
:102A5000021A31EE855A60EE811A31EE855A63EE24
:102A6000001A811931EE855A81ED005A26EE005A7E
:102A700027EE016A93ED014A36EE055A20EE826A8E
:102A800082ED043A36EE055A23EE013A82ED054A0C
:102A900033EE053A24EE004A34EE033A202E81ED5F
:102AA000013A00F09C8092ED027AD2ED030AD2ED59
:102AB000041A27EE007AD2ED052A60EE813A93EDF2
:102AC000024A33EE877A61EE823A33EE877A62EE1B
:102AD000813A33EE877A64EE004A34EE877A81EDEC
:102AE000027A20EE807A61EE810A93ED035A30EE8D
:102AF000877A62EE820A30EE877A64EE010A30EE5F
:102B0000877A65EE004A34EE877A81ED037A21EE0A
:102B1000807A93ED046A82ED064A33EE877A24EEDA
:102B2000024A34EE074A25EE017A37EE044A26EED1
:102B3000007A37EE044A81ED044A22EE804A93ED92
:102B4000053A82ED075A30EE844A25EE025A35EEF8
:102B5000044A26EE015A35EE044A23EE005A35EEB9
:102B6000044A81ED054A92ED064A92ED077A24EE79
:102B7000004A67EE011A82ED086A93ED065A31EEBB
:102B8000844A26EE026A36EE044A23EE016AD2ED4A
:102B9000080A36EE044A25EE006A36EE044A81ED54
:102BA000064A27EE004A20EE817A82ED093A93ED3B
:102BB000076A37EE044A23EE023A33EE043A25EE72
:102BC000014A34EE033A26EE004A34EE033A82ED2F
:102BD0000A5A82ED0B6A81ED073A203624E79068A5
:102BE0000C32CDF8E80407CACDF8F014CDF8EC04A7
:102BF00046F2293046F27F31C0F60000C0F60001EF
:102C0000CDF8F424FDF75EFB0DF1900A46F2943402
:102C100046F2D2150026C0F60004C0F6000557465D
:102C200005E000BF01360A2E07F104070DD0386811
:102C300002F046FE024620460B46FDF743FB082EF7
:102C4000F0D82846FDF73EFBECE746F28610C0F6CA
:102C50000000FDF7BFFC46F24310C0F60000FDF790
:102C6000B9FC45F6F020C0F6000090E88E00D0E9EF
:102C70000465D0E9064C006A0DF59D6ECDF8080597
:102C80004FF00310CDF8FC54CDF80045CDF8F8080E
:102C9000CDF8F008002546F21D300DF6F8048EE858
:102CA0008E00C4F22015C0F600002146CDF8F8646D
:102CB000CDF804C5CDF8FC88CDF8F4A8CDE93A5597
:102CC000CDE93C55CDE93E55CDE94055429501F061
:102CD00033FF4FF041403A900020CCF2C0003B90CF
:102CE0000020CCF280003C904FF040403D904FF0EF
:102CF00080403F9040F2000B46F2233000274FF017
:102D00008149C4F2C00B4FF08246C0F60000214654
:102D10003E97CDF80091CDF804B1429601F00CFF3A
:102D20000020C4F2F0103A900020C4F2C0103B9092
:102D30000020C4F290103C900020C4F2A8203D90E6
:102D40000020C4F28A203E900020C4F258203F9018
:102D50000020C4F20A3040900020C4F2E4204190E8
:102D60000020C4F2B420429046F21730C0F60000B2
:102D7000214601F0E1FE4FF080403D900020C4F27A
:102D8000400040900020C4F2A0003E900020C4F219
:102D9000E0003C900020C4F210104FF07E584290AA
:102DA0000FF224702146CDF8E880CDF8EC90CDF8F4
:102DB00004B13F9601F0C0FE4FF080403AA981E88F
:102DC000010A0020C4F240103F900020C4F26010BD
:102DD00040904FF0834041900020C4F29010429008
:102DE0000FF2E8602146CDE93D6501F0A5FE0DF545
:102DF0009D6B0BF1300603214FF0020900230020E8
:102E0000DC46CDE92487CDE92677CDE92887CDE9D1
:102E10002A77CDF8B0801E9011E000BFDDF87C90DD
:102E20000CF1040C013903F10103A9F1010906F1C8
:102E3000100607F10C070DF59D6B00F05B8103EBAD
:102E400043000CEB800595ED000A0AEB8000B5EE1F
:102E5000400AF1EE10FA6CD1B046012B2ED80126B3
:102E60004FF00C0E44464A4614ED091AB5EE401ACE
:102E7000F1EE10FA26D1012A20D014ED061AB5EE93
:102E8000401AF1EE10FA24D1022A17D014ED031AD9
:102E9000B5EE401AF1EE10FA23D1032A0ED094EDCC
:102EA000001AB5EE401AF1EE10FA21D10436043AB8
:102EB0000EF10C0E04F13004D6D100BF1E9A012A87
:102EC00034D060E106EB460205EB8204AEF1090E58
:102ED0000EE0721C02EB420205EB8204AEF1060E1C
:102EE00006E0B21C02EB420205EB8204AEF1030ED7
:102EF000012984ED000A85ED001A09D06A68666828
:102F0000022962606E6003D0AA68A668A260AE6003
:102F100000EB8E0206681468166004604668546808
:102F200056604460866894689660846001224646D4
:102F30001E9295ED000A01294FF07E52CDF87C904B
:102F40002A600DD095ED011A022981EE001A85ED57
:102F5000011A05D095ED021A81EE001A85ED021ACC
:102F600090ED001A90ED012A90ED023A81EE001AE0
:102F700082EE002A83EE003AC3F1030B4FF0000803
:102F80004FF00009644680ED001A80ED012A80EDC3
:102F9000023A06E00C3202EB830409F1020908F15F
:102FA000180847450AEB080E06D104EB8B02B8F16E
:102FB000180F4ED132E700BF94ED000A95ED002ABC
:102FC000B1EE401A20EE022A30EE422A012984EDA9
:102FD000002A01D1221D1AE095ED012A94ED013A53
:102FE00021EE022A32EE032A022984ED012A02D1BF
:102FF00004F108020BE095ED022A94ED023A21EE6D
:10300000022A32EE032A04F10C0284ED022A90ED2A
:10301000002A9EED003A21EE022A32EE032A8EEDBE
:10302000002A90ED012A9EED013A21EE022A32EEAD
:10303000032A8EED012A90ED022A9EED023A21EE3E
:10304000021A31EE031A8EED021AB8F1180F3FF48E
:10305000E5AE49F001049C429CD002EB830494ED60
:10306000000A95ED002AB1EE401A20EE022A30EE59
:10307000422A012984ED002A02D1221D1BE000BF53
:1030800095ED012A94ED013A21EE022A32EE032A4F
:10309000022984ED012A02D104F108020BE095ED2A
:1030A000022A94ED023A21EE022A32EE032A04F1BA
:1030B0000C0284ED022A90ED002A9EED033A21EEE7
:1030C000022A32EE032A8EED032A90ED012A9EEDAC
:1030D000043A21EE022A32EE032A8EED042A90ED04
:1030E000022A9EED053A21EE021A31EE031A8EED08
:1030F000051A50E71E9801284CD0B5EE400AF1EEB3
:1031000010FA47D10DF59D6090ED000AB5EE400A2A
:10311000F1EE10FA3ED190ED010AB5EE400AF1EE63
:1031200010FA37D190ED020AB5EE400AF1EE10FA2E
:1031300030D190ED030AB5EE400AF1EE10FA29D134
:1031400090ED040AB5EE400AF1EE10FA22D190EDAE
:10315000050AB5EE400AF1EE10FA1BD190ED060A11
:10316000B5EE400AF1EE10FA14D190ED070AB5EE73
:10317000400AF1EE10FA0DD190ED080AB5EE400AC2
:10318000F1EE10FA06D146F2B910C0F60000FDF7D4
:1031900021FA07E046F23F20C0F600000DF50F616E
:1031A00001F0CAFC0020C4F2C00020900020C4F24C
:1031B00070102190002046F22938C4F2C010C0F6E9
:1031C000000846F25F312290C0F600014046FDF74C
:1031D00079F846F29435C0F60005DDE91623284655
:1031E000FDF770F846F2D214C0F600042046FDF751
:1031F00069F89FEDB90B284653EC102BFDF762F8E8
:103200002046FDF75FF8229802F05AFB0246284656
:103210000B46FDF757F846F28610C0F60000FDF7A2
:10322000D9F946F2FA00C0F60000FDF7D3F91C9E6A
:10323000DDF874A045F65A70C0F6000032465346D9
:10324000FDF740F845F66870DDE90623C0F600009A
:10325000FDF738F89FEDA20B45F64D7053EC102B9F
:10326000C0F60000FDF72EF845F6E140DDE9142335
:103270000121C0F600000091FDF724F8189C199F69
:1032800045F6C8404FF00009C0F6000022463B4614
:10329000CDF80090FDF716F89FED930B45F675708D
:1032A00053EC102BC0F60000CDE91E23FDF70AF801
:1032B0009FED8F0B45F6847053EC102BC0F6000089
:1032C000FDF700F846F22B10C0F60000FDF782F97A
:1032D00046F2A631C0F600014046FCF7F3FF28464F
:1032E00022463B46FCF7EEFF46F2D217C0F6000737
:1032F0003846FCF7E7FFDDE91A232846FCF7E2FF32
:103300003846FCF7DFFF284632465346FCF7DAFF23
:103310003846FCF7D7FFDDE908232846FCF7D2FF43
:1033200046F2861AC0F6000A5046FDF753F946F2F7
:103330003421C0F600014046FCF7C4FF9FED6E0B40
:10334000284654EC106B32462346FCF7BBFF384648
:10335000FCF7B8FF284632462346FCF7B3FF384651
:10336000FCF7B0FF284632462346FCF7ABFF384651
:10337000FCF7A8FF284632462346FCF7A3FF384651
:10338000FCF7A0FF284632462346FCF79BFF504639
:10339000FDF720F945F6FA40C0F600004FF08041F5
:1033A0004FF040426FF00043CDF80090FCF78AFFE9
:1033B00046F29931C0F600014046FCF783FF9FEDCD
:1033C000500B284653EC102BCDE91623FCF77AFF5F
:1033D0003846FCF777FF9FED4C0B284653EC102B3B
:1033E000FCF770FF5046FDF7F5F845F61430C0F6CF
:1033F000000090E88E0000690DF59D6C8CE88E0051
:10340000CDF8F8040BF10805052104220DF59D6A9D
:1034100007E000BF09F10109012BA2F1010240F010
:10342000FC80013900F0F9809AED000AA9F1010051
:10343000032873D200230027B3E000BF0D0A3D3DEF
:103440003D2046617374204D617468205465737427
:10345000203D3D3D0D00000061726D5F737172741F
:103460005F71313528313633383429203D202564C9
:1034700020287E252E346620696E20713135290D75
:103480000A000000766C6F67285B312C20322E37E3
:1034900031382C20372E3338395D29007665787025
:1034A000285B302C20312C20325D29000D0A3D3D57
:1034B0003D2046696C746572696E6720546573744B
:1034C000203D3D3D0D000000415E540041202A207A
:1034D000322E300000BF00BF0000000000002E4070
:1034E00000000040584CF93F0000000000804B40B5
:1034F000000000A072880A4000000060B81E094069
:10350000000000000000E03F000000000000E0BFFD
:10351000D253FB410000803BD253FB4222F0030612
:1035200000232846002700BF10ED011A0437B4EE2F
:10353000410AF1EE10FAD1BFB0EE410A00ED021AD5
:1035400000ED010A012390ED001AB4EE410AF1EEFC
:1035500010FAD1BFB0EE410A00ED011A80ED000A69
:10356000012390ED011AB4EE410AF1EE10FAD1BF39
:10357000B0EE410A80ED001A80ED010A012390EDC2
:10358000021AB4EE410AF1EE10FAD1BFB0EE410AD0
:1035900080ED011A80ED020A0123BE4200F1100005
:1035A000C2D1C9F1040010F003063FF433AF0BEBB6
:1035B000870090ED011A041DB4EE410AF1EE10FAF5
:1035C000D1BFB0EE410A80ED001A84ED000A01235C
:1035D000012E3FF41FAF90ED021A00F10807B4EE80
:1035E000410AF1EE10FAD1BFB0EE410A84ED001AA3
:1035F00087ED000A0123022E3FF40CAF90ED031A71
:10360000B4EE410AF1EE10FA7FF704AF0C3001235B
:1036100087ED001A80ED000AFCE646F2293046F2FA
:10362000F421C0F60000C0F60001FCF74BFEDDF807
:10363000E80402F045F946F29434C0F6000402466C
:1036400020460B46FCF73EFE46F2D215C0F60005BA
:103650002846FCF737FEDDF8EC0402F031F90246AB
:1036600020460B46FCF72EFE2846FCF72BFEDDF825
:10367000F00402F025F9024620460B46FCF722FE34
:103680002846FCF71FFEDDF8F40402F019F90246A3
:1036900020460B46FCF716FE2846FCF713FEDDF825
:1036A000F80402F00DF9024620460B46FCF70AFE2C
:1036B00046F28610C0F60000FCF78CFF46F28C0044
:1036C000C0F60000FCF786FF1FED6F9A1FED6FAA92
:1036D0001FED6FBA00246FF01F086FF00F06B1EEF8
:1036E00004CAB2EE04DA00BF00EE104AB8EEC0EA37
:1036F0002EEE090A20EE0A0A01F02EFFB0EE408AF3
:103700002EEE0B0A20EE0A0A01F026FF20EE0C0A2C
:1037100028EE0D1A31EE000A0BEB0807601C87ED4E
:10372000080A00EE100AB8EEC0EA2EEE090A20EEF2
:103730000A0A01F011FFB0EE408A2EEE0B0A20EECD
:103740000A0A01F009FF20EE0C0A28EE0D1A31EEEC
:10375000000AA01C87ED090A00EE100AB8EEC0EAC4
:103760002EEE090A20EE0A0A01F0F6FEB0EE408ABB
:103770002EEE0B0A20EE0A0A01F0EEFE20EE0C0AF5
:1037800028EE0D1A31EE000AE01C87ED0A0A00EE61
:10379000100AB8EEC0EA2EEE090A20EE0A0A01F07D
:1037A000DBFEB0EE408A2EEE0B0A20EE0A0A01F094
:1037B000D3FE20EE0C0A28EE0D1A31EE000A0BEBB8
:1037C0000605201D85ED070A00EE100AB8EEC0EAD6
:1037D0002EEE090A20EE0A0A01F0BEFEB0EE408A83
:1037E0002EEE0B0A20EE0A0A01F0B6FE20EE0C0ABD
:1037F00028EE0D1A31EE000A601D85ED080A00EE74
:10380000100AB8EEC0EA2EEE090A20EE0A0A01F00C
:10381000A3FEB0EE408A2EEE0B0A20EE0A0A01F05B
:103820009BFE20EE0C0A28EE0D1A31EE000AA01DB8
:1038300087ED0D0A00EE100AB8EEC0EA2EEE090A76
:1038400020EE0A0A01F088FEB0EE408A2EEE0B0A46
:1038500020EE0A0A01F080FE20EE0C0A28EE0D1A76
:1038600031EE000AE01D87ED0E0A00EE100AB8EEF8
:10387000C0EA2EEE090A20EE0A0A01F06DFEB0EE53
:10388000408A2EEE0B0A20EE0A0A01F065FE20EEB9
:103890000C0A28EE0D1A083431EE000A08F120084F
:1038A000B4F5807F06F1200687ED0F0A7FF41CAF88
:1038B00046F2AC310BF500740020C0F6000100BFE9
:1038C0000BEB000292ED000A92ED804A92ED011A94
:1038D00092ED815A92ED022A92ED826A70EE044ACC
:1038E00092ED033A92ED837AC2ED004A71EE054AF9
:1038F000C2ED014A72EE064AC2ED024A73EE074A71
:10390000D2ED400AC2ED034AD2EDC04AD2ED411ACF
:1039100030EE440A92EDC14AD2ED422A31EE451A08
:1039200092EDC25A33EE473A30EEA47AD2ED433AE2
:1039300032EE462A92EDC36A82ED407A31EE847A05
:1039400082ED417A32EE857A82ED427A33EE867AE2
:103950000B1882ED437A34EEE07A34EE614AD3ED0F
:10396000000AD3ED011A35EE625A36EE636A60EE54
:10397000202A61EE213A21EE201A20EE210A31EEB2
:10398000400A82ED810A27EE210A24EE211A24EE54
:10399000204A30EE440A27EE207A93ED024A82ED67
:1039A000C00A93ED030A37EE011A82EDC11A22EE26
:1039B000041A23EE007A31EE071A82ED821A23EE02
:1039C000041A22EE002A31EE421A82ED831A25EE05
:1039D000001A26EE000A26EE042A25EE043A1030DC
:1039E00072EEA32A31EE421A33EE000AB0F5807F60
:1039F000C2ED802A82EDC21A82EDC30A7FF460AF65
:103A000046F2AC35C0F60005584640212A4602234E
:103A1000FEF728F8204640212A460223FEF722F826
:103A20004FF6606045F6283CCFF6FF70C0F6000CFC
:103A30000DF1E8080CEB0002B2F8A031B2F8A27167
:103A400023F0030327F003075BF803505BF80740FC
:103A50000BEB03060BEB07014BF803404BF8075049
:103A60004B68776873604F60B2F8A411B2F8A63162
:103A700021F0030123F003035BF801605BF80350BE
:103A80000BEB01070BEB03044BF801504BF8036001
:103A900061687B6879606360B2F8AA31B2F8A811F6
:103AA00023F003035BF8035021F003015BF801608E
:103AB0000BEB03044BF801500BEB010761684BF86B
:103AC00003607B687960B2F8AC11B2F8AE21636034
:103AD00021F0030122F003025BF801705BF8026041
:103AE0000BEB01030BEB02054BF801604BF8027086
:103AF00069685A68103059606A609BD19AED000A73
:103B00009AED011A30EE004A31EE011A34EE015AF4
:103B1000B6EE000A34EE411A21EE001A9AED022A9E
:103B20008DED3B1A9AEDFE1A9AED033A25EE005AF6
:103B30009AEDFF4A9FED427A8DED3A5A31EE425AA4
:103B4000DFED400A34EE036A65EE071A31EE021A21
:103B500026EE077A26EE206A31EE211A31EE061A99
:103B600021EE001A25EE205A8DED3C1A33EE441A50
:103B700031EE051A31EE471A21EE001A9AEDFC2AB1
:103B80009AED043A8DED3D1A9AEDFD1A9AED054A2B
:103B90009FED2D7A32EE435ADFED2C0A31EE046AA6
:103BA00065EE071A32EE032A25EE205A26EE077A32
:103BB00026EE206A32EE212A34EE411A32EE062A2F
:103BC00031EE051A22EE002A31EE471A8DED3E2A1B
:103BD00021EE001A9AEDFA2A9AED063A8DED3F1A77
:103BE0009AEDFB1A9AED074A9FED197ADFED190A53
:103BF00032EE435A31EE046A65EE071A25EE205A7A
:103C000032EE032A34EE411A26EE077A26EE206AB7
:103C100032EE212A31EE051A32EE062A31EE471A2B
:103C200046F2AC7222EE002A21EE001A002080211A
:103C3000C0F6000200238DED402A8DED411A0BE005
:103C4000B00AC93C43EC7F3F2FFB483D0FB17F3F9B
:103C500005A9963D6D4E7F3F0BEB00050BEB030472
:103C6000D61895EDF82A94ED083A95EDF91A94EDE9
:103C7000094AD6ED081AD6ED092A94ED0A5A32EE11
:103C8000437A32EE032A95EDF63A94ED0B6A71EE23
:103C9000040AD6ED0A3A67EE215A27EE227A34EE6C
:103CA000411A95EDF74AD6ED0B4A61EEA01A60EE87
:103CB000A20A32EE252A31EE071A33EE457A32EEA9
:103CC000202A31EE611A74EE060A67EE231A33EEEB
:103CD000053A63EEA02A60EEA40A33EE213A33EEF1
:103CE000203A08EB030723EE003A27EE247A87ED0B
:103CF0000A3A36EE443A33EE073A33EE623A21EEB0
:103D0000001A23EE003A22EE002A87ED091A95EDFB
:103D1000F41A87ED0B3A94ED0C3A87ED082A95EDED
:103D2000F52A94ED0D4A96ED0C5A96ED0D6A31EE9A
:103D3000437A72EE040A67EE051A31EE031A27EE93
:103D4000067A20EE866A31EE211A31EE061A21EE4D
:103D5000001A87ED0C1A34EE421A25EE205A31EE85
:103D6000071A31EE451A21EE001A87ED0D1A95ED6E
:103D7000F21A94ED0E3A95EDF32A94ED0F4A96ED72
:103D80000E5A96ED0F6A31EE437A72EE040A67EE30
:103D9000051A31EE031A27EE067A20EE866A31EE16
:103DA000211A31EE061A21EE001A87ED0E1A34EEB2
:103DB000421A25EE205A31EE071A31EE451A04391F
:103DC00021EE001A20330429A0F1200087ED0F1AFC
:103DD0003FF642AF9DED3A0A9DED3B1A9DED3C2A20
:103DE0009DED3D3A21EE011A20EE000A30EE010A67
:103DF00023EE031A22EE022A32EE011A9DED3F2A2B
:103E00009DED3E3AB1EEC00AB1EEC11A22EE022A91
:103E100023EE033A33EE022A9DED413A9DED404AEE
:103E2000B1EEC22A23EE033A24EE044A34EE033AFA
:103E30009DED434A9DED425AB1EEC33A24EE044A49
:103E400025EE055A35EE044A9DED455A9DED446A2E
:103E5000B1EEC44A25EE055A26EE066A36EE055A3C
:103E60009DED476A9DED467AB1EEC55A26EE066A8B
:103E700027EE077A37EE066A8DED240A8DED251AB6
:103E80009DED480A9DED491AB1EEC66A21EE011A70
:103E900020EE000A8DED262A30EE010A9DED4B1A28
:103EA0009DED4A2A21EE011A22EE022A8DED273AD3
:103EB00032EE011A9DED4D2A9DED4C3A22EE022A7A
:103EC00023EE033A8DED284A33EE022A9DED4F3A58
:103ED0009DED4E4A23EE033A24EE044A8DED295A15
:103EE00034EE033A9DED514A9DED505A24EE044ABA
:103EF00025EE055A8DED2A6A35EE044A9DED535A9A
:103F00009DED526A25EE055A26EE066A36EE055AF2
:103F10009DED556A9DED547A26EE066A27EE077AE6
:103F200037EE066A9DED577ADDED560A27EE077AE1
:103F300060EEA00A30EE877ADDED590ADDED581A01
:103F400060EEA00A61EEA11A71EEA00ADDED5B1A27
:103F5000DDED5A2A61EEA11A62EEA22A72EEA11AD2
:103F6000DDED5D2ADDED5C3A62EEA22A63EEA33A56
:103F700073EEA22ADDED5F3ADDED5E4A63EEA33A11
:103F800064EEA44A74EEA33ADDED614ADDED605AB9
:103F900064EEA44A65EEA55A75EEA44ADDED635AB7
:103FA000DDED626A65EEA55A66EEA66A76EEA55A62
:103FB000B1EEC00AB1EEC11AB1EEC22AB1EEC33AF7
:103FC000B1EEC44AB1EEC55AB1EEC66AB1EEC77AD7
:103FD000F1EEE00AF1EEE11AF1EEE22AF1EEE33A57
:103FE000F1EEE44AF1EEE55A46F2293046F21A21A2
:103FF000C0F60000C0F600018DED2B0A8DED2C1AE5
:104000008DED2D2A8DED2E3A8DED2F4A8DED305A06
:104010008DED316A8DED327ACDED330ACDED341A66
:10402000CDED352ACDED363ACDED374ACDED385AC6
:10403000FCF748F90DF1900A46F2943446F2D21595
:104040000026C0F60004C0F60005574605E000BF94
:104050000136152E07F104070DD0386801F030FC49
:10406000024620460B46FCF72DF9132EF0D82846C1
:10407000FCF728F9ECE746F28610C0F60000FCF7E2
:10408000A9FA46F21510C0F60000FCF7A3FA0020CA
:10409000C4F24000CDE93C000020CDE93A004FF0E9
:1040A0007C50CDE920000220CDF8E804CDF8EC04E6
:1040B00020A8CDF8F8044BF21770CDF8F4A4C3F69D
:1040C000D1000DF59D6A0DF6F8064FF07E59CDF83A
:1040D000FC040DF50F6150463246CDE92699CDE935
:1040E0002499CDF8F084CDF8F498CDF8F098FDF748
:1040F000CDFB0746DDF8F808DDF8FC5801F0E0FBE1
:10410000044628468B4601F0DBFB41EC100B45F6DC
:104110002B50C0F60000394622465B468DED000B61
:10412000FCF7D0F84FF08140CDF8EC08CDF8E80866
:104130000DF6E80150463246FDF7A8FB0446DDF8CF
:10414000F808DDF8FC5801F0BBFB064628460F4690
:1041500001F0B6FB41EC100B45F65A50C0F60000DA
:10416000214632463B468DED000BFCF7ABF846F29C
:104170003B00C0F60000FCF72DFA9FEDAD0B45F6B5
:10418000AD6053EC102BC0F60000FCF79BF8DDF897
:1041900060A0DDF864B045F66860C0F600005246E5
:1041A0005B46FCF78FF845F68960DDE90C23C0F625
:1041B0000000FCF787F845F6D160DDE91C23C0F666
:1041C0000000FCF77FF846F2C100C0F60000FCF7E3
:1041D00001FA9FED990B45F6F56053EC102BC0F6F4
:1041E0000000FCF76FF845F61570DDE91E23C0F6F8
:1041F0000000FCF767F845F62160DDE91A23C0F6F8
:104200000000FCF75FF846F2A600C0F60000FCF7DD
:10421000E1F946F22938C0F6000846F24B31C0F603
:1042200000014046FCF74EF846F29436169D179C66
:10423000C0F6000630462A462346FCF743F846F20D
:10424000D217C0F600073846FCF73CF830462A463D
:104250002346FCF737F83846FCF734F830462A4650
:104260002346FCF72FF83846FCF72CF830462A4650
:104270002346FCF727F846F28614C0F600042046D1
:10428000FCF7A8F946F26B31C0F600014046FCF796
:1042900019F8304652465B46FCF714F83846FCF7EE
:1042A00011F8DDE910233046FCF70CF83846FCF72E
:1042B00009F8DDE912233046FCF704F83846FCF72C
:1042C00001F8DDE90E233046FBF7FCFF2046FCF742
:1042D00081F99FED5B0B45F6357053EC102BC0F662
:1042E0000000FBF7EFFF46F22F31C0F60001404619
:1042F000FBF7E8FF0A9D0B9C30462A462346FBF756
:10430000E1FF3846FBF7DEFF304652465B46FBF7DF
:10431000D9FF3846FBF7D6FF30462A462346FBF73F
:10432000D1FF3846FBF7CEFF30462A462346FBF73F
:10433000C9FF46F28610C0F60000FCF74BF946F2C2
:104340002700C0F60000FCF745F94FF07C502490A0
:104350000020CBF68070CDE93C00012021900020A8
:1043600020900220CDF8E804CDF8EC044CF6CD40C6
:10437000C3F6CC50CDF8F00424A8CDF8F4043AA844
:10438000CDF8F80420A849F69A16CDF8FC044FF0B1
:104390007C500DF59D640DF6E805CBF69966CDF8D9
:1043A000FC08CDF8F8080DF6F80120462A462596B7
:1043B000CDE93A994FF07C57FDF710FEDDF8E8188B
:1043C00045F68950C0F60000FBF77CFF06F1661049
:1043D00000F5CC4007F10041CDF8F408CDF8F01815
:1043E0000DF50F6120462A46FDF7F8FDDDF8E818C7
:1043F00045F6A850C0F60000FBF764FF46F25A10DD
:10440000C0F60000FCF7E6F846F20A00C0F600002D
:10441000FCF7E0F845F6DE70C0F600000DF5106D13
:10442000BDEC0E8B01B0BDE8F04FFCF7D3B800BF78
:1044300000000020DCC814400000000000003940EB
:10444000000000E0ADE8154044F60041C4F2000170
:104450000A68520609D40A6852065CBF0A685FEA15
:10446000426202D40A685206F2D5C2B24A6070476C
:1044700086B043F60804C4F20204D4F8F8034EF6FA
:104480000C5B40F40070C4F8F803D4F8F803CEF2E3
:10449000000B40F48060C4F8F803D4F8F8034FF63A
:1044A000FF0140F48070C4F8F803DBF8000040F22C
:1044B0000006084040F20031C0F2FA510843CBF840
:1044C0000000C2F20006306844F6D359C1F2620916
:1044D000A0FB09024FF0FF3101EB92120020B0EB7C
:1044E000126F23D14EF21003CEF200035A60F02275
:1044F0008BF81720072298601A60DBF80020C2F3BF
:10450000022282F00703042B28BF04239940033AB8
:104510006FEA010138BF0246914009018BF817107C
:1045200040F20811C2F2000101220A700190E16B11
:1045300047F2000A41F48041E163E16BC4F2000AF2
:1045400001F48041019101990190A16B41F08051EA
:10455000A163A16B01F08051019101990190A16BC0
:1045600041F08051A163A16B01F08051019101994B
:104570000190DAF8000040F48040CAF80000DAF850
:10458000000000F4804001900198206800F00C00C9
:10459000042836D154F8080C206800F00C000828D4
:1045A00064D154F8040C47F6FF71C0F6437108401B
:1045B00042F60421C0F24041884240F0AF80D4F876
:1045C000F80300F00700042808D8052084F8F80351
:1045D000D4F8F80300F00700052810D1206840F453
:1045E000E0502060206840F460402060206820F0A7
:1045F000F000206054F8080C800100F1928072B63F
:10460000FEE7206800F00C00082803D154F8040CE1
:104610004002BFD454F8080C40F4803044F8080C31
:1046200040F20410C2F20000016854F8082C920312
:10463000B2D40268521A642A70D854F8082C920333
:10464000AAD40268521A642A68D854F8082C920333
:10465000A2D40268521A642A60D854F8082C920333
:104660009AD40268521A642ADFD957E06021C4F252
:1046700047210020086040F20410C2F200000268E6
:1046800054F8083C9B011CD503689B1A022B45D8A3
:1046900054F8083C9B0114D503689B1A022B3DD8A3
:1046A00054F8083C9B010CD503689B1A022B35D8A3
:1046B00054F8083C9B0104D503689B1A022BDFD9F0
:1046C0002CE042F60422C0F2404244F8042C0122BD
:1046D0000A60016854F8082C92013FF570AF026837
:1046E000521A022A1AD854F8082C92013FF567AFE3
:1046F0000268521A022A11D854F8082C92013FF588
:104700005EAF0268521A022A08D854F8082C9201A7
:104710003FF555AF0268521A022ADBD972B600BFC4
:10472000FEE72068022161F3010040F204152060D9
:10473000C2F20005286841F28831226802F00C02BA
:10474000082A22D02A68121A8A423FF658AF2268F5
:1047500002F00C02082A18D02A68121A8A423FF680
:104760004EAF226802F00C02082A0ED02A68121AF4
:104770008A423FF644AF226802F00C02082A04D0B5
:104780002A68121A8A42D8D939E7D4F8F80300F017
:104790000600062809D1052084F8F803D4F8F803A8
:1047A00000F0070005287FF42AAF2068052161F397
:1047B0008C2020602068042161F34F302060206845
:1047C00000F00C0142F200400829C0F2F40006D0CB
:1047D000042926D141F20020C0F27A0021E054F8E9
:1047E000041C01F03F0254F8041C54F8043C490234
:1047F000C3F3881105D4A1FB00010023FCF72AFBB9
:1048000006E041F20020C0F27A004843B0FBF2F02B
:1048100054F8041C0222C1F3014102EB4101B0FB38
:10482000F1F02168BEA2C1F30311515C4FF0000802
:10483000C840A0FB09124FF0FF3101EB9211B8EB19
:10484000116F30602AD140F20810C2F200004EF21F
:1048500010030278CEF200035960F0218BF8171094
:104860000721012AC3F80880196017D1DBF800106E
:104870004FF0FF33C1F3022181F00702042A28BF61
:104880000422033903FA02F238BF0021D24302FAAC
:1048900001F109018BF8171001210170CDF8148086
:1048A000CDF80080A06A40F2184740F00400A062F2
:1048B000A06AC4F2020700F0040000900098CDF84E
:1048C0000080A06A01A940F08000A062A06A00F008
:1048D000800000900098CDF80080A06A40F00100B0
:1048E000A062A06A00F0010000900098CDF800805E
:1048F000A06A40F00200A062A06A00F002000090EE
:1049000000984FF480203860042001900120CDE908
:1049100002080AF5CA30CDF81080FCF73FFB40F2E0
:10492000BC0944F60046C2F20009C4F200064FF486
:10493000E1300C21C9E90060C9E90288C9E90481B4
:10494000C9E9068899F8410018B100200021002229
:1049500038E0002689F840600196A06B022140F4FF
:104960000020A063A06B00F4002001900198019644
:10497000A06A40F00100A062A06A00F0010001906E
:1049800001980320019004900820CDE902160590BB
:104990000AF5C83001A9FCF701FBDBF800004EF274
:1049A0003440CEF2000006704EF21000CEF200004D
:1049B0004FF48011C0F8F410D9F80060D9E9021260
:1049C000D9E90680242389F84130F36823F40053A1
:1049D000F360336923F440531A433261D9E9042365
:1049E0001143F268194349F20C639A43114301439E
:1049F000F16071690AF5204221F4407141EA080131
:104A0000716126F48061914240F20001C2F200011E
:104A1000096822684FF00A0308BF0D23DA4002F04C
:104A2000070243A39A5C4FF69C74D1401922D9F82F
:104A30000430C0F6FF74B0F5004FA1FB02011CD199
:104A40005A00DB0FFCF706FA48F21F51C5F2EB11D2
:104A5000A0FB01235A0904F1805302FB0300322317
:104A600003EBC000A0FB01014FF4F87000EA111045
:104A700000EB0210C1F3421118E09A009B0FFCF703
:104A8000E9F948F21F51C5F2EB11A0FB01235A09C5
:104A900002FB0400322303EB0010A0FB0101F02015
:104AA00000EA511000EB0210C1F343110844B0605A
:104AB0003069202120F490403061706920F02A0094
:104AC0007061F06840F40050F0600020C9F84400C4
:104AD00089F8411089F84210C9F83400FDF7ECFB61
:104AE00057F8040C00F0040040EA004080F0040095
:104AF000386028682968091AB1F5FA7FF0D8296862
:104B0000091AB1F5FA7FEBD82968091AB1F5FA7FCD
:104B1000E6D82968091AB1F5FA7FEBD9E0E700BFBA
:104B2000000000000000000001020304060708095D
:104B300000000000010203042DE9F04F83B0B1F83A
:104B400000A04D88D1F80490014626A052462B467D
:104B5000FBF7B8FBBAF1000F40D0A5B346F2D2176D
:104B60006C1EA8004FF0000824A6C0F600070190B4
:104B7000CDF808A00EE000BF46F2D010C0F600004D
:104B8000FBF728FDDDF808A0019808F10108D045E1
:104B9000814423D04FF0000BCA4605E00BF1010B16
:104BA0005D450AF1040AE7D0DAF8000000F088FE5B
:104BB000024630460B46FBF785FB5C45EEDD38468A
:104BC000FBF780FBEAE746F2D0150024C0F60005AB
:104BD0002846FBF7FFFC01345445F9D303B0BDE888
:104BE000F08F00BF0D0A2D2D2D2025732028256460
:104BF00078256429202D2D2D0D0A00002531302E19
:104C0000346600005FEA400C08BF91F0000F4FEAE5
:104C10008C234FEAC12243EA51514FEA1C5018BF7E
:104C200000F5F0404FEA300018BF41F000415FEA64
:104C30006C5C00F02980BCF1FF3F08BF40F0804071
:104C40007047130C06BF12044FF0100C4FF0000C0D
:104C5000130E04BF12020CF1080C130F04BF120153
:104C60000CF1040C930F04BF92000CF1020CD30F53
:104C700004BF52000CF1010C11464FF00002A0F1EC
:104C80001F00A0EB0C00704711F0004F08BF7047E9
:104C900031F000413FF4D5AF0B0C06BF09044FF0D3
:104CA000100C4FF0000C0B0E04BF09020CF1080CA5
:104CB0000B0F04BF09010CF1040C8B0F04BF89001A
:104CC0000CF1020CCB0F04BF49000CF1010CCCF12C
:104CD000200322FA03F341EA030102FA0CF2A0EBEB
:104CE0000C0000F10100704723F07F4720F07F4C5B
:104CF00080EA030000F00040ACEB070303F57C53AF
:104D000003F1FF032DE9804909B44FEA144324EA73
:104D100003484FEA154B25EA0B4E0FF2042606EB2B
:104D200013273E7803FB0667C7F5000707FB06F667
:104D30004FEAD64606F102064FEA543707FB066CE7
:104D4000CCF1005C4FEA1C472CEA074C0CFB06F543
:104D500007FB06F404EB15464FEA961649085FEA8E
:104D6000320234BF00204FF000404FEAD13706FB3B
:104D700007FC4FEA1C4C0CFB0BF7D21B03FB0CF798
:104D800061EB07010CFB0EF7B0EB074072EB17422B
:104D90000CFB08F734BFA2EB0742B2EB074261EB12
:104DA00017414FEA0C444FEA910706FB07FC4FEA14
:104DB0001C4C0CFB0BF7B0EBC74072EB573203FBFC
:104DC0000CF734BFA2EBC742B2EBC74261EB5731DD
:104DD0000CFB0EF7B0EBC70072EB57720CFB08F739
:104DE00034BFA2EBC702B2EBC70261EB57714FEAC7
:104DF000816141EA92114FEA826242EA90124FEADF
:104E0000806004EBCC04039F4FEAD13706FB07FC1C
:104E10004FEA1C4C0CFB0BF7D21B03FB0CF761EBAE
:104E200007010CFB0EF7B0EB074072EB17420CFBCF
:104E300008F734BFA2EB0742B2EB074261EB174120
:104E40004FEA8C5504EB9C244FEA910706FB07FCC4
:104E50004FEA1C4C0CFB0BF7B0EBC74072EB573220
:104E600003FB0CF734BFA2EBC742B2EBC74261EBC6
:104E700057310CFB0EF7B0EBC70072EB57720CFB0F
:104E800008F734BFA2EBC702B2EBC70261EB577160
:104E90004FEA816141EA92114FEA826242EA90123E
:104EA0004FEA806015EB4C2544F100044FEAD137FE
:104EB00006FB07FC4FEA1C4C0CFB0BF7D21B03FB59
:104EC0000CF761EB07010CFB0EF7B0EB074072EB40
:104ED00017420CFB08F734BFA2EB0742B2EB0742C4
:104EE00061EB17414FEA813141EA92414FEA823248
:104EF00042EA90424FEA80304FEA0C7615EB1C15DF
:104F000044F1000448EA03434EEA0B484FF0000E18
:104F1000B2EB080C71EB030724BF624639464EEB37
:104F20000E0E4FF0000B0018524149414BEB0B0B9A
:104F3000B2EB080C71EB03077BF1000B24BF624658
:104F400039464EEB0E0E4FF0000B0018524149410E
:104F50004BEB0B0BB2EB080C71EB03077BF1000B77
:104F600024BF624639464EEB0E0E51EA020718BFC7
:104F700046F0010616EB0E7655F1000254F10001E1
:104F800003D5BDE88901BDE80088BDE88901BDE819
:104F90000048B619524141EB0101A3F101037047EA
:104FA00080807F7E7D7C7B7A797877767675747366
:104FB000727171706F6E6E6D6C6C6B6A6A69686825
:104FC000676666656464636362616160605F5F5EBB
:104FD0005E5D5D5C5C5B5B5A5A5959585857575631
:104FE0005655555554545353525252515150505096
:104FF0004F4F4F4E4E4D4D4D4C4C4C4B4B4B4A4AE8
:105000004A4949494848484747474746464645452B
:105010004544444444434343434242424241414164
:105020009C46002B30D477002BD04FEA37071CB5B5
:1050300003B44FF010004FF01001BAF1000F06D08A
:10504000BCF1000FDCBF40F0080040F008014FF059
:1050500000000FBCBDE810400BF1010BBBF1010FCC
:1050600008BF5FEA170722BF12F1010211F1010127
:105070004FF0004143F1000300F0004043EA00001C
:105080007047F9D35708D0E746EA06464FEA164676
:1050900013F1400F1FDD13F1200FDFBF16430A4647
:1050A000002120335B42BED0C3F1200746EA06460A
:1050B0004FEA164602FA07F746EA070622FA03F213
:1050C000C3F1200701FA07F742EA070221FA03F1C8
:1050D0004FF00003A7E746EA020646EA06464FEA13
:1050E000164646EA0106BCBF46EA0646360C4FF0B5
:1050F00000034FF000024FF0000194E72DE9804CCF
:1051000070B49A46934691E8380007C831EA400CDB
:1051100048BF34EA430C03D5FFF7E6FDFFF780FFF5
:10512000F0BCBDE8008C2DE9804C70B49A469346E3
:1051300091E8380007C810F0804F08BF13F0804F87
:1051400003D100F005F8FFF76BFFF0BCBDE8008C61
:1051500020F07F4723F07F4C80EA030000F00040FE
:1051600007EB0C03A3F57C53A3F1FE0392F0000FB1
:1051700000F0B38095F0000F00F077802DE9014931
:105180004FEA114021EA00484FEA144624EA064754
:1051900000FB06FC08FB06F607FB08F818EB0648C0
:1051A0004CEB164C00FB07F718EB07484CEB17408D
:1051B0004FEA124B22EA0B4E4FEA154625EA064704
:1051C0000BFB06FC0EFB06F607FB0EFE1EEB064E67
:1051D0004CEB164C0BFB07F71EEB074E4CEB174B3B
:1051E00018EB0B0840F1000018EB0E0B58EB000811
:1051F00040F100008F1A4FF000014FF000063CBF55
:10520000C943661B14BFB5EB040C00213CBFC94366
:10521000F61B4FEA174427EA04454FEA1C472CEADD
:10522000074C04FB076205FB07F70CFB05F616EBC2
:10523000074642EB174204FB0CFC16EB0C4642EB14
:105240001C421BEB060658EB020241414EEA8E0E51
:1052500046EA9E0601D5BDE80189B619524141EBE7
:105260000101A3F10103BDE801894FEA144524EAD5
:1052700005464FEA114721EA074C05FB07F406FBF8
:1052800007F70CFB06F111EB074144EB174405FB54
:105290000CFC11EB0C4144EB1C444FEA124722EA90
:1052A000074C05FB07F206FB07F70CFB06F616EBAF
:1052B000074642EB174205FB0CFC16EB0C4642EB93
:1052C0001C456A1854F1000148BF7047B619524195
:1052D00041EB0101A3F10103704795F0000F37D0B6
:1052E0004FEA114221EA02464FEA144724EA074CEA
:1052F00002FB07F106FB07F70CFB06F414EB07446F
:1053000041EB174102FB0CFC14EB0C4441EB1C413C
:105310004FEA154725EA074C02FB07F506FB07F79E
:105320000CFB06F616EB074645EB174502FB0CFC9B
:1053300016EB0C4645EB1C42121951F1000148BF17
:105340007047B619524141EB0101A3F101037047C7
:105350004FEA144524EA05464FEA114721EA074C73
:1053600005FB07F106FB07F70CFB06F212EB074201
:1053700041EB174105FB0CFC12EB0C4251EB1C41BD
:105380004FF0000648BF7047921841EB0101A3F1AE
:105390000103704703B401984100009850EAC1200E
:1053A00018BF04204A0D18BF40F0010040F2FF7200
:1053B000B2EB515F08BF40F00200012808BF052092
:1053C00002B070474100080218BF04200A0E18BF3F
:1053D00040F001004FF07F4232EA010108BF40F087
:1053E0000200012808BF05207047000010EE100AD7
:1053F00010B50023A0F50001B1F1FE4F67D200BF48
:1054000000F500216FF07E0202EBE15CC1F3025275
:105410004FF07E5101EB025100EE901AA0EBCC5000
:1054200003EB0C0100EE100A51EA020036D030EE18
:10543000601A70EE200A9FED3D2A3E4881EE200A58
:105440009FED3B1A60EE000A00EE821A60EE201A11
:1054500061EE810A784401EE101A00EB82009FEDA4
:10546000362AB8EEC11AD0ED001A344841EE021ABD
:10547000784401EE101A00EB8200B8EEC11A90EDEC
:10548000002ADFED2F2A01EE222AB0EE001A72EE7A
:10549000200A40EE010A31EEA00A10BDF7EE000A24
:1054A0009FED291A30EE600ADFED260A00EE201A81
:1054B000DFED260A60EE001A40EE010A9FED241A85
:1054C00000EE201A61EE810A30EE200A10BD4FF086
:1054D0007F41B1EB400F03D2BDE8104000F00EB9A0
:1054E000B0F1FF4F08BF10BDB5EEC00AF1EE10FAE3
:1054F00006D20120FBF78CF8BDE8104000F002B99D
:10550000B5EEC00AF1EE10FA07D10220FBF780F8E1
:1055100000F0EAF8B1EE400A10BDDFED0E0A6FF0C0
:10552000160320EE200A10EE100A69E766F1CC3E61
:10553000AAAA2A3FA40500000070313FA805000078
:10554000F4FD053821ED423E0A1180BEC1ABAA3EF2
:10555000FFFFFFBE0000004B00B510EE101A2DED4E
:10556000028B81B0524A6846B2EB410F2ED94FF000
:10557000E640B0EB410F94BF00204FF0FF300090A9
:105580000098B0EE408A00286ADB10F0010F4BD083
:1055900068EE080A9FED471A9FED470A00EE810A60
:1055A0009FED461A10F0020F00EE801AB7EE000AC7
:1055B00000EE810A02BF01B0BDEC028B00BD00BF4E
:1055C00001B0B1EE400ABDEC028B00BD3C4B21F0B6
:1055D0000042934241D911F0004FDFED3A0A20EE2C
:1055E000201ADFED390A19BF31EE601A71EE200A78
:1055F00031EE201A71EE600ABDEEE01A11EE100ACB
:105600009FED321A00F0030000EEC10A9FED301A40
:10561000009000EEC10A9FED2F1A00EEC10A9FED27
:105620002E1A00EEC10AABE728EE080A9FED2B1AEE
:10563000DFED2B0A10F0020F40EE010A9FED291A50
:1056400000EE201A61EE000AB0EE480A08EE200AC9
:10565000B6D101B0BDEC028B00BD00F063F88FE75E
:1056600018EE100A4000B0F17F4F0DD218EE100A6C
:10567000FFF7A8FE042808BF00F04CF8B0EE480A77
:1056800001B0BDEC028B00BD09D10120FAF7C0FFCB
:1056900001B0BDEC028B5DF804EB00F033B801B053
:1056A000B0EE480ABDEC028B5DF804EB00F026B8C2
:1056B000B61F927EB93AB2BACA9F2A3DDDFFFFBE3D
:1056C000490E494683F9223F0000004B0000C93FC4
:1056D00000A0FD390020A2331A61342C336D4CB97F
:1056E000DA82083CA0AA2ABEDFED030AB7EE001A50
:1056F00081EE200A704700000000000030EE000A32
:1057000070470000DFED020A80EEA00A704700003B
:10571000000000009FED020A20EE000A7047000022
:10572000000000102DE9F0014FF07F42B2EB410F75
:105730009FBF4FF0FF310160BDE8F00170474FF0AF
:10574000004242EA0123C1F3C752783A551112F0E0
:105750001F0C434CCCF120067C44C1F3C752A2F18C
:1057600078024FEA621204EB820254F8254008BF27
:10577000D2E9015612D0556804FA0CF425FA06F75E
:105780003C43976805FA0CF527FA06F8D26807FA41
:105790000CFCF24045EA08054CEA0206A4FB034C67
:1057A000A5FB0352A6FB03631D449D4234BF0126A3
:1057B00000261319334416B1934202D903E09342F1
:1057C00001D2012200E00022624402F1200C920684
:1057D000DC0C42EA443200EE102A5B03DFED210AC2
:1057E000F8EEC01A00EE103A4FEA9C1C11F0004F80
:1057F000B8EE400AC0F800C020EE201A00EE105AA1
:10580000DFED190AB8EE400A20EE200A71EE810A97
:1058100070EE800A10EE902A02F500626FF30B0220
:1058200000EE902A70EEE11A31EEC11ADFED101A87
:1058300030EE411A9FED0D0A20EE800A01EE210A9A
:105840009FED0C1A00EE810A04BFBDE8F00170471D
:10585000CCF180510160BDE8F001B1EE400A704723
:10586000E0020000000000360000802C22AAFD2982
:10587000DB0FC92F0000C92F30380A2801D20120C0
:10588000704700207047000010B500290AD0087842
:10589000002807D005487844FBF79EFA002801D07D
:1058A000002010BD0248784410BD000036130000EF
:1058B0002E1300000808A0F500114FEA31017047CF
:1058C00043004FEAD30C4FEA3C0C43401FBF400754
:1058D0000CF1605113F0FE4F70471CF0006F03D1C4
:1058E0000CF00041002070470CF0004343EA507078
:1058F00040EACC0010B500F00EF800BF00000092A6
:105900004FEA0001FFF7D6BF4FF00041A1F500219B
:105910004FF0000070470EF1020E2EF0030E5EF8FD
:10592000044B244204D44FEA4102B2F17F4F11D814
:105930004FEA4003B3F17F4F0CD80ED14FEAD07C31
:105940000CEB4C0C0CF1020CB2F17F4F08BF4CEB8E
:10595000D17C04E04FF0080C01E04FEAD17C0CEB65
:105960004C0324FA03F404F00704B4F1040C06D247
:105970000EEB840CBDE810404CF0010C6047DFE8F2
:105980000CF0070802024FF00040A0F5800010BDA7
:105990000846420018BFD2F1807288BF00F0004074
:1059A00010BDF1EE100A4FF6FF71C0F2C03120EACF
:1059B000010040F04070E1EE100A7047FAF75FBF57
:1059C0003031323334353637383941424344454635
:1059D000403058003031323334353637383961622F
:1059E0006364656640307800040000080000000031
:1059F0000000000200010000100000000000000094
:105A00000030F13D0070643E0000A33E0090CF3EA8
:105A10000090F83E00400F3F00E0203F00000000F3
:105A200015B78337CDE37B380EE1C53860F6913882
:105A3000AF5F0F38E1BC3E3823F447390000000067
:105A40006E83F9A22915444ED15727FCC0DD34F5E9
:105A5000999562DB4190433CAB6351FE02400000EC
:105A6000000000A00000000005400000000000C889
:105A7000000000000C4000000000409C00000000FE
:105A8000194000000020BCBE0000000034400000AF
:105A9000BFC91B8E00000004B5400000504BCFD0A2
:105AA0006607E2CF010000006C4100003E8251AA6F
:105AB000DFEEA73401000000D9420000DCB5A0E20F
:105AC0003A301F97FFFFFFFFB4450000FD25A0C837
:105AD000E9A3C14FFFFFFFFFFF3F00000000008070
